:04000000020029329F
:01000B0032C2
:0100130032BA
:01001B0032B2
:030023000200B721
:0300A10002002634
:030026000200A431
:2000A400758920759850758DFAD28E75A8901204D780FB109902800030980AC291C2988521
:0600C400992375240132AE
:2000CA00D281D2801201D0C2811201D0C28022C281D2801201D0D2810201D0E58224FF924A
:2000EA0081D2801201D0C2800201D0D2801201D0A28192D7C2801201D0A2D7E433F582221C
:20010A00AF827E008F05ED2DFFA2D79281D280C007C0061201D0C2801201D0D006D0070E4B
:20012A00BE080040DF0200F57F00D2817E008F05ED2DFDD280C006C0051201D0D005D00673
:20014A00A281E4334DFFC280C007C0061201D0D006D0070EBE080040D58F8222AF82C0079C
:20016A001200CAD0078F8212010A85088212010A85098212010A0200D9AF82C0071200CA8C
:20018A00D0078F82C00712010A850A8212010A1200D91200CAD00774014FF58212010A1253
:1401AA000132AF82758201C0071200E51200D9D0078F822232
:1701BE00AC830CAD827E037FAADFFEDEFADDF6DCF2227F05DFFE221B
:1F008200753C01753D00E4F53EF53FF540F541F542F543F544F545F546F547F548F54971
:2001D500752909752A00752B03752C00752D3C752E00752F03753000120E37AF2F74302FAB
:2001F500F531E4F532FEFFE52E30E7077E017F0075332DE52E3392004006AC2DAD2E80095D
:20021500C3E4952DFCE4952EFD8C388D39750C64750D00853882853983C007C00612122E70
:20023500750C0A750D00121291AA82AB83D006D007EA4B60118E048F050EBE00010FEC2428
:2002550033F974302AF774012EFCE43FFDEE2433F9750C0A750D00853882853983C005C089
:2002750004C00112122EAE82D001D004D00574302EF7EC2433F87600750B00758200120E97
:20029500629013AD75F080120E0C750B0A758200120E6290003175F040120E0C750B1475E8
:2002B5008200120E629013B075F080120E0C750B1E758200120E6290003375F040120E0C16
:2002D500E4F53AF53BC3E53A9409E53B648094804003020372E4F525F526AC3AE53BC4038F
:2002F50054F8CCC403CC6CCC54F8CC6CFD74322CF527E43DF5287C007D00C3EC9408ED64C4
:20031500809480504D7B00BB0100503FAA25E42AF582AA278C07EF2AF50BC007C005C004B0
:20033500120E62D004D005D007EF3395E0FEEF24A5F582EE3413F583E493F582C005C004BE
:20035500120E9ED004D0057B0180BC0CBC00AB0D80A8053AE4B53A02053B0202DA752506EF
:20037500E4F526F527F528FEFFC3EE9408EF6480948050547D00BD02005046AC258D03EB3D
:200395002CF582AC278E02EA2CF50BC007C006C005C003C002120E62D002D003EBC4035428
:2003B500F82AFA3395E0FCEA247DF582EC3413F583E493F582120E9ED005D006D0070D8000
:2003D500B50EBE00A40F80A17525077526007527087528007E007F00C3EE9408EF64809485
:2003F5008050457D00BD01005037AC25E42CF582AC278E03EB2CF50BC007C006C003120ECE
:2004150062D003EB3395E0FCEB24A5F582EC3413F583E493F582120E9ED006D0077D0180D6
:20043500C40EBE00B30F80B07525037526007527507528007E007F00C3EE940CEF648094AF
:200455008050547D00BD02005046AC258D03EB2CF582AC278E02EA2CF50BC007C006C005D7
:20047500C003C002120E62D002D003EB75F00CA42AFA3395E0FCEA248DF582EC3413F58336
:20049500E493F582120E9ED005D006D0070D80B50EBE00A40F80A122E53C453D6012750B80
:2004B50028758203120E629013B375F080020E0C750B28758203120E629013C175F08002BD
:2004D5000E0C7403B53E06E4B53F02800D7404B53E06E4B53F0280028007C2901205638076
:2004F5002DE53C453D7007753C01F53D80127401B53C0614B53D0280028005E4F53CF53D68
:20051500E53C453D24FF92909001F41201BE7401B5242C85233E753F00752400C290120077
:20053500CA120D4C7403B53E06E4B53F02800D7404B53E06E4B53F02800280031201D574EE
:2005550001B522091200D98521997522002220A00B7401B5400614B54102801430A1030211
:20057500068A7401B5420614B54302800302068A20A0047F0180027F0030A00630A1030250
:20059500068ABF0124740A252DF52DE4352EF52EC3745A952D7480852EF063F08095F050E4
:2005B5001C752D5A752E008014E52D24F6F52DE52E34FFF52E30E705E4F52DF52EE4FEFFFA
:2005D500E52E30E7077E017F00754A2DE52E3392014006AC2DAD2E8009C3E4952DFCE495B1
:2005F5002EFD8C4F8D50750C64750D00854F82855083C007C00612122E750C0A750D0012F0
:200615001291AA82AB83D006D007EA4B60118E048F050EBE00010FEC244AF974302AF774E7
:20063500012EFCE43FFDEE244AF9750C0A750D00854F82855083C005C004C00112122EAE00
:2006550082D001D004D00574302EF7EC244AF87600750B1E758200120E629013CF75F0808A
:20067500120E0C750B1E758200120E6290004A75F040120E0C20B20B7401B5440614B54518
:2006950002801430B30302072A7401B5460614B54702800302072A20B2047F0180027F0001
:2006B50030B20320B36FBF011E152F74FFB52F021530C3E52F9401E53064809480502875D8
:2006D5002F017530008020152F74FFB52F021530C37403952F74808530F063F08095F0506F
:2006F50006752F03753000AF2F74302FF551755200750B0A758200120E629013D375F08077
:20071500120E0C750B0A758200120E6290005175F040120E0C30A203020BCA7401B54806BF
:2007350014B549028003020BCA90000A1201BE30A203020BCA152974FFB52902152AE4F576
:2007550025F5267408C39529FEE4952AC40354F8CEC403CE6ECE54F8CE6EFF74322EF5277D
:20077500E43FF5287E007F00C3EE9408EF6480948050317D00BD01005023AC25E42CF5826C
:20079500AC278E03EB2CF50BC007C006120E62758200120E9ED006D0077D0180D80EBE00B6
:2007B500C70F80C4852D82852E83120C1BAC82AD83AEF0FFC004C005C006C00790C3B775D7
:2007D500F0077441120EB585825385835485F055F556E58124FCF581852F0C85300D9000AA
:2007F50019120FB9AA82AB83C003C002C053C054C055C05690000075F0807440120EB5853D
:20081500826B85836C85F06DF56EE58124FCF581D002D0038A828B831210A5AA82AB83AE93
:20083500F0FFC06BC06CC06DC06E8A828B838EF0EF120EAA85825785835885F059F55AE5F1
:200855008124FCF581E4C0E0C0E0C0E07441C0E08557828558838559F0E55A12104C858213
:200875005B85835C85F05DF55EE58124FCF581C053C054C055C05690000075F0E074401296
:200895000EAA85825F85836085F061F562E58124FCF5818557828558838559F0E55A120CAB
:2008B500F6AA82AB83AEF0FFC002C003C006C0078553828554838555F0E55612114F8582F0
:2008D5006385836485F065F566E58124FCF5817525077526007527087528007A007B00C3CE
:2008F500EA9408EB6480948050317F00BF01005023AE25E42EF582AE278A05ED2EF50BC0AC
:2009150003C002120E62758200120E9ED002D0037F0180D80ABA00C70B80C47567107568A6
:2009350000C37477956774808568F063F08095F05003020B6A8567828568831210A5AA8234
:20095500AB83ACF0FDC05BC05CC05DC05E8A828B838CF0ED120EAAAA82AB83ACF0FDE581A3
:2009750024FCF5818A828B838CF0ED120CF6AA82AB83ACF0FDC002C003C004C005856382CA
:200995008564838565F0E566120EB5AA82AB83ACF0FDE58124FCF581C05FC060C061C0626B
:2009B5008A828B838CF0ED12104CAA82AB83ACF0FDE58124FCF5818A828B838CF0ED12109D
:2009D500B285826985836AC3E5699401E56A648094805003020B5CC3740795697480856AA6
:2009F500F063F08095F05003020B5C856925856A2674082567F527E43568F5287A007B00FF
:200A1500C3EA9408EB64809480504D7D00BD0100503FAC25E42CF582AC278A07EF2CF50B57
:200A3500C007C003C002120E62D002D003D007EF3395E0FEEF24A5F582EE3413F583E4936F
:200A5500F582C003C002120E9ED002D0037D0180BC0ABA00AB0B80A89001901201BEC3E52C
:200A7500259403E526648094805003020B0BC37404952574808526F063F08095F040777430
:200A950048952774808528F063F08095F05067C3E527945CE52864809480505A152B74FF7C
:200AB500B52B02152C7525037526007527507528007E007F00C3EE940CEF64809480503682
:200AD5007D00BD02005028AC258D03EB2CF582AC278E03EB2CF50BC007C006C005120E620F
:200AF500758200120E9ED005D006D0070D80D30EBE00C20F80BF856925856A26740825673E
:200B1500F527E43568F5287E007F00C3EE9408EF6480948050317D00BD01005023AC25E4F1
:200B35002CF582AC278E03EB2CF50BC007C006120E62758200120E9ED006D0077D0180D83B
:200B55000EBE00C70F80C474082567F567E43568F56802093675250775260075270875289A
:200B7500007E007F00C3EE9408EF6480948050457D00BD01005037AC25E42CF582AC278E1F
:200B950003EB2CF50BC007C006C003120E62D003EB3395E0FCEB24A5F582EC3413F583E438
:200BB50093F582120E9ED006D0077D0180C40EBE00B30F80B0E52B452C6006E529452A7057
:200BD50012900BB81201BE753E01753F00752101752201A2A2E433F548754900A2A0E43384
:200BF500F540754100A2A1E433F542754300A2B2E433F544754500A2B3E433F546754700EB
:200C150090000A0201BEAE82AF83C3E49E74808FF063F08095F0E433FD6017750C0A750D5A
:200C3500008E828F83C005121291AB82AC83D005801AC3E49EF582E49FF583750C0A750D74
:200C550000C005121291AB82AC83D0058B068C07ED6027EE2EFCEF33FDEC2CFCED33FDECE8
:200C75002424F582ED340DF583E493FAA3E493FBA3E493FCA3E493FD802FEE2EFEEF33FF5D
:200C9500EE2EFEEF33FFEE2424F582EF340DF583E493F8A3E493F9A3E493FEA3E493FF8874
:200CB5000289038E04EFB2E7FD8A828B838CF0ED22AE82AF83C3E49E74808FF063F0809553
:200CD500F05010C3E49EFCE49FFD745A2CFCE43DFD8007745A2EFCE43FFD8C828D83020C0F
:200CF5001BAC82AD83AEF0FFC004C005C006C0078C828D838EF0EF120EB5AC82AD83AEF057
:0F0D1500FFE58124FCF5818C828D838EF0EF2227
:20137D0000FFFFF600FEFFFE000107FFFEFF0700C03038FCFFFFFCFC3E3EF0C00103070FF6
:20139D000F0F0F0F0F0703017EC381818181C37E5320004120002020202020202020202040
:1213BD002020200057616974696E67202E2E2E2E2000F3
:200D24000000000033C4313EA01AAF3E0000003F8A8E243F9318443F2DB25D3F2E90703FD2
:080D4400DA1B7C3F0000803F38
:0613CF0020202000200098
:200D4C007582A8120E9275823F120E927582D3120E92758200120E92758240120E92758249
:200D6C00A1120E927582C8120E927582DA120E92758212120E92758281120E9275827F12B3
:200D8C000E927582A4120E927582A6120E927582D5120E92758280120E9275828D120E922E
:200DAC00758214120E927582AF120E92020E37AF82BF0A01227E00EF24E0F50CEE34FFF526
:200DCC000D900005120FB9AE82AF837D008D037C00EB2EFBEC3FFCEB24D5F582EC3413F5E2
:200DEC0083E493F582C007C006C005120E9ED005D006D0070DBD050040D3758200020E9E5D
:200E0C00AD82AE83AFF08D828E838FF0121212FC60188C820DBD00010EC007C006C0051233
:200E2C000DBBD005D006D00780DC227F00750B008F82C007120E62D0077E00758200C00772
:200E4C00C006120E9ED006D0070EBE800040EC0FBF080040D822AF82AE0B74022EF50BAE91
:200E6C000B740F5EF582C007C006120E92D006EEC4540FFE74104EF582120E92D00774B0E5
:1E0E8C004FF582020E92858209750800758278020166858209750840758278020166D6
:2013D500000000000000002F00000007000700147F147F14242A7F2A1223130864623649F5
:2013F5005522500005030000001C2241000041221C0014083E081408083E08080000A06037
:20141500000808080808006060000020100804023E5149453E00427F400042615149462191
:2014350041454B311814127F1027454545393C4A49493001710905033649494936064949EF
:20145500291E00363600000056360000081422410014141414140041221408020151090673
:20147500324959513E7C1211127C7F494949363E414141227F4141221C7F494949417F09B2
:201495000909013E4149497A7F0808087F00417F41002040413F017F081422417F40404064
:2014B500407F020C027F7F0408107F3E4141413E7F090909063E4151215E7F09192946462B
:2014D5004949493101017F01013F4040403F1F2040201F3F4038403F6314081463070870C1
:2014F50008076151494543007F41410055AA55AA550041417F0004020102044040404040A3
:20151500000305000020545454787F484444383844444420384444487F3854545418087E16
:2015350009010218A4A4A47C7F0804047800447D40004080847D007F1028440000417F4046
:20155500007C041804787C080404783844444438FC2424241818242418FC7C080404084852
:2015750054545420043F4440203C4040207C1C2040201C3C4030403C44281028441CA0A0D7
:1B159500A07C4464544C4400107C82000000FF000000827C100000060909065A
:0B0EAA00A8811818C6B2E7C602104C61
:200EB500120F58BC0003021107EF60FA30D502B2D1E583B4FF0302111DE582B4FF0302117A
:200ED5001D258340072482400B021107248314500302111DF582EA8DF0A4A8F0EA8EF0A482
:200EF50028F8E435F0F9EB8DF0A428E935F0F9E433CA8FF0A429F9EA35F0FAEBF88EF0A44C
:200F150029F9EA35F0FAE433FBEC8DF0A429F9EA35F0FAE43BFBE88FF0A42AFAEB35F0FBF3
:200F3500E433CCFD8EF0A42AFAEB35F0FBE43CFCED8FF0A42BFBEC35F0FC20E703120F865B
:030F55000210E6A1
:200F5800AA82AB83A2F73392D1F5826002D2F7ACF0E58124F9F8E6FD08E6FE0886F008E6FC
:0E0F7800A2F73392D5F5836002D2F7AFF022D4
:06005800E478FFF6D8FD7C
:200F86007804EC7011E58224F8500AF582E4C9CACBFCD8EF22EC7820058220E713D582016A
:130FA60022C3E933F9EA33FAEB33FBEC33FCD8EA15822278
:200036007900E94400601B7A009015B0780175A000E493F2A308B8000205A0D9F4DAF275AB
:02005600A0FF09
:1D0FB900E582850CF0A4C582C0F0850DF0A4D0F025F0C583850CF0A42583F58322EE
:200FD600E50C450D60467A01E50C25E0F50CE50D334012F50DE582950CE583950D40030AC8
:200FF60080E6C3E50D13F50DE50C13F50CC3E582950CF5F0E583950D4005F58385F082C375
:0D101600E50D13F50DE50C13F50CDAE122E4
:201023007A10E4FBFCE58225E0F582E58333F583EB33FBEC33FCEB950CF5F0EC950D4006D9
:09104300FCABF0438201DADD226E
:20104C00120F587900E583B58202800D5003121135E583C395821212C9E5D0C465D020E1DB
:20106C0017EA2DFAEB3EFBEC3FFC500974011212C9EC4480FC0210E6C3EA9DFAEB9EFBECDE
:19108C009FFC500FC3E499F9E49AFAE49BFBE49CFCB2D1120F860210E688
:20005E007800E84400600A790175A000E4F309D8FC7800E84400600C7900900001E4F0A3A0
:04007E00D8FCD9FAD7
:0D10A500AC83AB827A007900748E02126D6C
:2010B20012130C700AE582458345F0700122E430D112F4700BE5F0F47006E58330E7012235
:1410D20090800022700AE5F07006E58320E70122907FFF2251
:2010E600B98003EA13B34010EA2401FAE43BFBE43CFC50047C800582BC000EBB000BBA004E
:2011060008E4F5F0F583F58222A2D1E582138CF092F78B838A8222E4F583F58275F080F40D
:0F112600A2D11322E4F583F58275F0C0747F2205
:1A113500E582C583F582A2D133A2D592D11392D5ECCFFCEBCEFBEACDFA2242
:20114F00120F5830D502B2D1BF0009BC000302112A02111DBC0003021107E583B4FF0BE5A5
:20116F0082B4FF0302112A021107E582B4FF0302111DC395835007247F400B0211072480A6
:20118F0014500302111DF582C3ED9AEE9BEF9C40111582C3EA33F9EB33FAEC33FBE433FCCE
:2011AF008005E4CCCBCAF9C08275F019C3E99DEA9EEB9FEC9400D5F002802D400EE99DF981
:2011CF00EA9EFAEB9FFBEC9400FCC3B3E833F8E58233F582E58333F583C3E933F9EA33FAE1
:2011EF00EB33FBEC33FC80C4B3E4F938FAE43582FBE43583FCD082500405827C80120F86A8
:03120F000210FECC
:0D00290075816E121379E5826003020026D6
:1C12120020F71430F6148883A88220F507E6A88375830022E280F7E49322E022EB
:20122E00C2D5E58330E70DD2D5E4C39582F582E49583F583E50D30E70BE4C3950CF50CE4EC
:16124E00950DF50D120FD630D50BE4C39582F582E49583F5832214
:20126400FCABF0AA83A982749EF582C2D1EC30E716D2D1E9F42401F9EAF43400FAEBF43489
:0D12840000FBECF43400FC120F860210E6B3
:20129100C2D5E58330E70DD2D5E4C39582F582E49583F583E50D30E70DB2D5E4C3950CF5F0
:1812B1000CE4950DF50D12102330D50BE4C39582F582E49583F5832271
:2012C9006040F82582500274FFF582E824F8501ECCCBCAF9E4CC24F85014CBCAF9E4CB242D
:2012E900F8500BCAF9E4CA24F8500379002224086010F8C3EC13FCEB13FBEA13FAE913F9E0
:03130900D8F122F6
:20130C00121367C3749E9582403979001212C930D126E9F42401F582EAF43400F583EBF461
:20132C003400F5F0ECF43400700AE582458345F0700122E430E70F22EC20E71489828A83B8
:1B134C008BF02230D10AE4F582F583F5F074802274FFF582F583F5F0747F22B4
:12136700AA82AB83A2F73392D1F5826002D2F7ACF0228B
:041379007582002257
:00000001FF
