:04000000020029329F
:01000B0032C2
:0100130032BA
:01001B0032B2
:030023000200B721
:0300A10002002634
:030026000200A431
:2000A400758920759850758DFAD28E75A8901204AD80FB109902800030980AC291C298854B
:0600C400992375240132AE
:2000CA00D281D2801201D0C2811201D0C28022C281D2801201D0D2810201D0E58224FF924A
:2000EA0081D2801201D0C2800201D0D2801201D0A28192D7C2801201D0A2D7E433F582221C
:20010A00AF827E008F05ED2DFFA2D79281D280C007C0061201D0C2801201D0D006D0070E4B
:20012A00BE080040DF0200F57F00D2817E008F05ED2DFDD280C006C0051201D0D005D00673
:20014A00A281E4334DFFC280C007C0061201D0D006D0070EBE080040D58F8222AF82C0079C
:20016A001200CAD0078F8212010A85088212010A85098212010A0200D9AF82C0071200CA8C
:20018A00D0078F82C00712010A850A8212010A1200D91200CAD00774014FF58212010A1253
:1401AA000132AF82758201C0071200E51200D9D0078F822232
:1701BE00AC830CAD827E037FAADFFEDEFADDF6DCF2227F05DFFE221B
:1F008200753C01753D00E4F53EF53FF540F541F542F543F544F545F546F547F548F54971
:2001D500752909752A00752B03752C00752D3C752E00752F03753000120F4AAF2F74302F97
:2001F500F531E4F532FEFFE52E30E7077E017F0075332DE52E3392004006AC2DAD2E80095D
:20021500C3E4952DFCE4952EFD8C388D39750C64750D00853882853983C007C0061213415C
:20023500750C0A750D001213A4AA82AB83D006D007EA4B60118E048F050EBE00010FEC2414
:2002550033F974302AF774012EFCE43FFDEE2433F9750C0A750D00853882853983C005C089
:2002750004C001121341AE82D001D004D00574302EF7EC2433F87600750B00758200120F82
:20029500759015C075F080120F1F750B0A758200120F7590003175F040120F1F750B147584
:2002B5008200120F759015C375F080120F1F750B1E758200120F7590003375F040120F1FB1
:2002D500E4F53AF53BC3E53A9409E53B648094804003020372E4F525F526AC3AE53BC4038F
:2002F50054F8CCC403CC6CCC54F8CC6CFD74322CF527E43DF5287C007D00C3EC9408ED64C4
:20031500809480504D7B00BB0100503FAA25E42AF582AA278C07EF2AF50BC007C005C004B0
:20033500120F75D004D005D007EF3395E0FEEF24B8F582EE3414F583E493F582C005C00496
:20035500120FB1D004D0057B0180BC0CBC00AB0D80A8053AE4B53A02053B0202DA752506DB
:20037500E4F526F527F528FEFFC3EE9408EF6480948050547D00BD02005046AC258D03EB3D
:200395002CF582AC278E02EA2CF50BC007C006C005C003C002120F75D002D003EBC4035414
:2003B500F82AFA3395E0FCEA2490F582EC3414F583E493F582120FB1D005D006D0070D80D8
:2003D500B50EBE00A40F80A17525077526007527087528007E007F00C3EE9408EF64809485
:2003F5008050457D00BD01005037AC25E42CF582AC278E03EB2CF50BC007C006C003120FCD
:2004150075D003EB3395E0FCEB24B8F582EC3414F583E493F582120FB1D006D0077D01809B
:20043500C40EBE00B30F80B07525037526007527507528007E007F00C3EE940CEF648094AF
:200455008050547D00BD02005046AC258D03EB2CF582AC278E02EA2CF50BC007C006C005D7
:20047500C003C002120F75D002D003EB75F00CA42AFA3395E0FCEA24A0F582EC3414F5830E
:20049500E493F582120FB1D005D006D0070D80B50EBE00A40F80A1227403B53E06E4B53FB9
:2004B50002800D7404B53E06E4B53F0280028007C290120539802DE53C453D7007753C0129
:2004D500F53D80127401B53C0614B53D0280028005E4F53CF53DE53C453D24FF9290900108
:2004F500F41201BE7401B5242C85233E753F00752400C2901200CA120E5F7403B53E06E474
:20051500B53F02800D7404B53E06E4B53F02800280031201D57401B522091200D98521998C
:200535007522002220A00B7401B5400614B54102801430A1030206607401B5420614B54358
:2005550002800302066020A0047F0180027F0030A00630A103020660BF0124740A252DF599
:200575002DE4352EF52EC3745A952D7480852EF063F08095F0501C752D5A752E008014E509
:200595002D24F6F52DE52E34FFF52E30E705E4F52DF52EE4FEFFE52E30E7077E017F0075AA
:2005B5004A2DE52E3392014006AC2DAD2E8009C3E4952DFCE4952EFD8C4F8D50750C647538
:2005D5000D00854F82855083C007C006121341750C0A750D001213A4AA82AB83D006D0077B
:2005F500EA4B60118E048F050EBE00010FEC244AF974302AF774012EFCE43FFDEE244AF912
:20061500750C0A750D00854F82855083C005C004C001121341AE82D001D004D00574302EDE
:20063500F7EC244AF87600750B1E758200120F759015C675F080120F1F750B1E7582001284
:200655000F7590004A75F040120F1F20B20B7401B5440614B54502801430B3030206FF74EC
:2006750001B5460614B5470280030206FF20B2047F0180027F0030B20320B36EBF011E1557
:200695002F74FFB52F021530C3E52F9401E530648094805027752F01753000801F052FE487
:2006B500B52F020530C37403952F74808530F063F08095F05006752F03753000AF2F7430F7
:2006D5002FF551755200750B0A758200120F759015CA75F080120F1F750B0A758200120F7C
:2006F5007590005175F040120F1F30A203020B9F7401B5480614B549028003020B9F9000DE
:200715000A1201BE30A203020B9F152974FFB52902152AE4F525F5267408C39529FEE4950B
:200735002AC40354F8CEC403CE6ECE54F8CE6EFF74322EF527E43FF5287E007F00C3EE94CF
:2007550008EF6480948050317D00BD01005023AC25E42CF582AC278E03EB2CF50BC007C00C
:2007750006120F75758200120FB1D006D0077D0180D80EBE00C70F80C4852D82852E83121A
:200795000D2EAC82AD83AEF0FFC004C005C006C00790C3B775F0077441120FC88582538505
:2007B500835485F055F556E58124FCF581852F0C85300D9000191210CCAA82AB83C003C046
:2007D50002C053C054C055C05690000075F0807440120FC885826B85836C85F06DF56EE58E
:2007F5008124FCF581D002D0038A828B831211B8AA82AB83AEF0FFC06BC06CC06DC06E8A00
:20081500828B838EF0EF120FBD85825785835885F059F55AE58124FCF581E4C0E0C0E0C02D
:20083500E07441C0E08557828558838559F0E55A12115F85825B85835C85F05DF55EE581D0
:2008550024FCF581C053C054C055C05690000075F0E07440120FBD85825F85836085F06190
:20087500F562E58124FCF5818557828558838559F0E55A120E09AA82AB83AEF0FFC002C0A3
:2008950003C006C0078553828554838555F0E55612126285826385836485F065F566E58101
:2008B50024FCF5817525077526007527087528007A007B00C3EA9408EB6480948050317FEF
:2008D50000BF01005023AE25E42EF582AE278A05ED2EF50BC003C002120F75758200120FC2
:2008F500B1D002D0037F0180D80ABA00C70B80C4756710756800C37477956774808568F097
:2009150063F08095F05003020B3F8567828568831211B8AA82AB83ACF0FDC05BC05CC05DCB
:20093500C05E8A828B838CF0ED120FBDAA82AB83ACF0FDE58124FCF5818A828B838CF0EDB1
:20095500120E09AA82AB83ACF0FDC002C003C004C0058563828564838565F0E566120FC874
:20097500AA82AB83ACF0FDE58124FCF581C05FC060C061C0628A828B838CF0ED12115FAA42
:2009950082AB83ACF0FDE58124FCF5818A828B838CF0ED1211C585826985836AC3E569940B
:2009B50001E56A648094805003020B31C3740795697480856AF063F08095F05003020B3151
:2009D500856925856A2674082567F527E43568F5287A007B00C3EA9408EB64809480504D5A
:2009F5007D00BD0100503FAC25E42CF582AC278A07EF2CF50BC007C003C002120F75D0028D
:200A1500D003D007EF3395E0FEEF24B8F582EE3414F583E493F582C003C002120FB1D0027B
:200A3500D0037D0180BC0ABA00AB0B80A89001901201BEC3E5259403E526648094805003C6
:200A5500020AE0C37404952574808526F063F08095F040777448952774808528F063F08026
:200A750095F05067C3E527945CE52864809480505A152B74FFB52B02152C752503752600A9
:200A95007527507528007E007F00C3EE940CEF6480948050367D00BD02005028AC258D03E8
:200AB500EB2CF582AC278E03EB2CF50BC007C006C005120F75758200120FB1D005D006D0EC
:200AD500070D80D30EBE00C20F80BF856925856A2674082567F527E43568F5287E007F00D7
:200AF500C3EE9408EF6480948050317D00BD01005023AC25E42CF582AC278E03EB2CF50BAB
:200B1500C007C006120F75758200120FB1D006D0077D0180D80EBE00C70F80C47408256763
:200B3500F567E43568F56802090B7525077526007527087528007E007F00C3EE9408EF6436
:200B550080948050457D00BD01005037AC25E42CF582AC278E03EB2CF50BC007C006C00372
:200B7500120F75D003EB3395E0FCEB24B8F582EC3414F583E493F582120FB1D006D0077D94
:200B95000180C40EBE00B30F80B0E52B452C6009E529452A6003020CFBE52B452C60030284
:200BB5000C4D750B1F758203120F757E007F00C3EE9440EF648094804003020CE97C007DFC
:200BD50000C3EC9402ED648094805064AB258C02EA2BF582AB278E02EA2BF50BC007C00634
:200BF500C005C004120F75D004D005D006D0078C02ED5403A2E0CA13CA13A2E0CA13CA1321
:200C1500CAFBEE2AFAEF3BFBEA24C0F582EB3414F583E493F582C007C006C005C004120FAE
:200C3500B1D004D005D006D0070CBC00940D80910EBE00010F020BC4E529452A6003020C83
:200C5500E9750B1F758203120F757E007F00C3EE9440EF64809480507B7C007D00C3EC94F7
:200C750002ED648094805064AB258C02EA2BF582AB278E02EA2BF50BC007C006C005C0044D
:200C9500120F75D004D005D006D0078C02ED5403A2E0CA13CA13A2E0CA13CA13CAFBEE2A2C
:200CB500FAEF3BFBEA2440F582EB3415F583E493F582C007C006C005C004120FB1D004D015
:200CD50005D006D0070CBC00940D80910EBE00010F020C639003E81201BE753E01753F00D2
:200CF500752101752201A2A2E433F548754900A2A0E433F540754100A2A1E433F5427543CD
:200D150000A2B2E433F544754500A2B3E433F54675470090000A0201BEAE82AF83C3E49EFB
:200D350074808FF063F08095F0E433FD6017750C0A750D008E828F83C0051213A4AB82ACB2
:200D550083D005801AC3E49EF582E49FF583750C0A750D00C0051213A4AB82AC83D0058B7E
:200D7500068C07ED6027EE2EFCEF33FDEC2CFCED33FDEC2437F582ED340EF583E493FAA370
:200D9500E493FBA3E493FCA3E493FD802FEE2EFEEF33FFEE2EFEEF33FFEE2437F582EF3497
:200DB5000EF583E493F8A3E493F9A3E493FEA3E493FF880289038E04EFB2E7FD8A828B839E
:200DD5008CF0ED22AE82AF83C3E49E74808FF063F08095F05010C3E49EFCE49FFD745A2CE6
:200DF500FCE43DFD8007745A2EFCE43FFD8C828D83020D2EAC82AD83AEF0FFC004C005C086
:200E150006C0078C828D838EF0EF120FC8AC82AD83AEF0FFE58124FCF5818C828D838EF0E9
:020E3500EF22AA
:2014900000FFFFF600FEFFFE000107FFFEFF0700C03038FCFFFFFCFC3E3EF0C00103070FE2
:2014B0000F0F0F0F0F0703017EC381818181C37E00000000000000000000011FFFFFF0E052
:2014D000FCFF1F3FFFF8E0FCFF7F070000FFFFFF000000FFFFFFFF3E7CF0E0FFFFFFFF00CC
:2014F000000F7F7F1F0000000000000000000000000000000000000000000000010707079A
:20151000070000000307070707000000000707070000000707070700000003070707070045
:201530000007070707000000000000000000000000000000000000000000FCFEFF07030379
:2015500007DFFEFEF8030F7FFEF080E0FCFF1F070000FFFFFF33333333330300FEFFFFFFA7
:2015700073F3F7FFBF1E000000000000000000000000000000000000000001030707070702
:201590000707030100000000030707070700000000000707070707070707070003070707B3
:1615B0000000010707070400000000000000000053200041200037
:200E37000000000033C4313EA01AAF3E0000003F8A8E243F9318443F2DB25D3F2E90703FBE
:080E5700DA1B7C3F0000803F24
:0615C6002020200020009F
:200E5F007582A8120FA575823F120FA57582D3120FA5758200120FA5758240120FA57582D1
:200E7F00A1120FA57582C8120FA57582DA120FA5758212120FA5758281120FA575827F123B
:200E9F000FA57582A4120FA57582A6120FA57582D5120FA5758280120FA575828D120FA5A2
:200EBF00758214120FA57582AF120FA5020F4AAF82BF0A01227E00EF24E0F50CEE34FFF5D6
:200EDF000D9000051210CCAE82AF837D008D037C00EB2EFBEC3FFCEB24CCF582EC3415F5C1
:200EFF0083E493F582C007C006C005120FB1D005D006D0070DBD050040D3758200020FB121
:200F1F00AD82AE83AFF08D828E838FF0121325FC60188C820DBD00010EC007C006C005120B
:200F3F000ECED005D006D00780DC227F00750B008F82C007120F75D0077E00758200C00736
:200F5F00C006120FB1D006D0070EBE800040EC0FBF080040D822AF82AE0B74022EF50BAE69
:200F7F000B740F5EF582C007C006120FA5D006EEC4540FFE74104EF582120FA5D00774B0A9
:1E0F9F004FF582020FA5858209750800758278020166858209750840758278020166AE
:2015CC00000000000000002F00000007000700147F147F14242A7F2A1223130864623649FC
:2015EC005522500005030000001C2241000041221C0014083E081408083E08080000A0603E
:20160C00000808080808006060000020100804023E5149453E00427F400042615149462198
:20162C0041454B311814127F1027454545393C4A49493001710905033649494936064949F6
:20164C00291E0036360000005636000008142241001414141414004122140802015109067A
:20166C00324959513E7C1211127C7F494949363E414141227F4141221C7F494949417F09B9
:20168C000909013E4149497A7F0808087F00417F41002040413F017F081422417F4040406B
:2016AC00407F020C027F7F0408107F3E4141413E7F090909063E4151215E7F091929464632
:2016CC004949493101017F01013F4040403F1F2040201F3F4038403F6314081463070870C8
:2016EC0008076151494543007F41410055AA55AA550041417F0004020102044040404040AA
:20170C00000305000020545454787F484444383844444420384444487F3854545418087E1D
:20172C0009010218A4A4A47C7F0804047800447D40004080847D007F1028440000417F404D
:20174C00007C041804787C080404783844444438FC2424241818242418FC7C080404084859
:20176C0054545420043F4440203C4040207C1C2040201C3C4030403C44281028441CA0A0DE
:1B178C00A07C4464544C4400107C82000000FF000000827C1000000609090661
:0B0FBD00A8811818C6B2E7C602115F39
:200FC80012106BBC000302121AEF60FA30D502B2D1E583B4FF03021230E582B4FF03021229
:200FE80030258340072482400B02121A2483145003021230F582EA8DF0A4A8F0EA8EF0A433
:2010080028F8E435F0F9EB8DF0A428E935F0F9E433CA8FF0A429F9EA35F0FAEBF88EF0A437
:2010280029F9EA35F0FAE433FBEC8DF0A429F9EA35F0FAE43BFBE88FF0A42AFAEB35F0FBDF
:20104800E433CCFD8EF0A42AFAEB35F0FBE43CFCED8FF0A42BFBEC35F0FC20E70312109933
:031068000211F979
:20106B00AA82AB83A2F73392D1F5826002D2F7ACF0E58124F9F8E6FD08E6FE0886F008E6E8
:0E108B00A2F73392D5F5836002D2F7AFF022C0
:06005800E478FFF6D8FD7C
:201099007804EC7011E58224F8500AF582E4C9CACBFCD8EF22EC7820058220E713D5820156
:1310B90022C3E933F9EA33FAEB33FBEC33FCD8EA15822264
:200036007900E94400601B7A009017A7780175A000E493F2A308B8000205A0D9F4DAF275B2
:02005600A0FF09
:1D10CC00E582850CF0A4C582C0F0850DF0A4D0F025F0C583850CF0A42583F58322DA
:2010E900E50C450D60467A01E50C25E0F50CE50D334012F50DE582950CE583950D40030AB4
:2011090080E6C3E50D13F50DE50C13F50CC3E582950CF5F0E583950D4005F58385F082C360
:0D112900E50D13F50DE50C13F50CDAE122D0
:201136007A10E4FBFCE58225E0F582E58333F583EB33FBEC33FCEB950CF5F0EC950D4006C5
:09115600FCABF0438201DADD225A
:20115F0012106B7900E583B58202800D5003121248E583C395821213DCE5D0C465D020E18B
:20117F0017EA2DFAEB3EFBEC3FFC500974011213DCEC4480FC0211F9C3EA9DFAEB9EFBECA2
:19119F009FFC500FC3E499F9E49AFAE49BFBE49CFCB2D11210990211F94C
:20005E007800E84400600A790175A000E4F309D8FC7800E84400600C7900900001E4F0A3A0
:04007E00D8FCD9FAD7
:0D11B800AC83AB827A007900748E02138044
:2011C50012141F700AE582458345F0700122E430D112F4700BE5F0F47006E58330E701220D
:1411E50090800022700AE5F07006E58320E70122907FFF223D
:2011F900B98003EA13B34010EA2401FAE43BFBE43CFC50047C800582BC000EBB000BBA003A
:2012190008E4F5F0F583F58222A2D1E582138CF092F78B838A8222E4F583F58275F080F4F9
:0F123900A2D11322E4F583F58275F0C0747F22F1
:1A124800E582C583F582A2D133A2D592D11392D5ECCFFCEBCEFBEACDFA222E
:2012620012106B30D502B2D1BF0009BC000302123D021230BC000302121AE583B4FF0BE541
:2012820082B4FF0302123D02121AE582B4FF03021230C395835007247F400B02121A248042
:2012A200145003021230F582C3ED9AEE9BEF9C40111582C3EA33F9EB33FAEC33FBE433FCA6
:2012C2008005E4CCCBCAF9C08275F019C3E99DEA9EEB9FEC9400D5F002802D400EE99DF96D
:2012E200EA9EFAEB9FFBEC9400FCC3B3E833F8E58233F582E58333F583C3E933F9EA33FACD
:20130200EB33FBEC33FC80C4B3E4F938FAE43582FBE43583FCD082500405827C801210997F
:03132200021211A3
:0D00290075816E12148CE5826003020026C2
:1C13250020F71430F6148883A88220F507E6A88375830022E280F7E49322E022D7
:20134100C2D5E58330E70DD2D5E4C39582F582E49583F583E50D30E70BE4C3950CF50CE4D8
:16136100950DF50D1210E930D50BE4C39582F582E49583F58322EC
:20137700FCABF0AA83A982749EF582C2D1EC30E716D2D1E9F42401F9EAF43400FAEBF43475
:0D13970000FBECF43400FC1210990211F977
:2013A400C2D5E58330E70DD2D5E4C39582F582E49583F583E50D30E70DB2D5E4C3950CF5DC
:1813C4000CE4950DF50D12113630D50BE4C39582F582E49583F5832249
:2013DC006040F82582500274FFF582E824F8501ECCCBCAF9E4CC24F85014CBCAF9E4CB2419
:2013FC00F8500BCAF9E4CA24F8500379002224086010F8C3EC13FCEB13FBEA13FAE913F9CC
:03141C00D8F122E2
:20141F0012147AC3749E9582403979001213DC30D126E9F42401F582EAF43400F583EBF425
:20143F003400F5F0ECF43400700AE582458345F0700122E430E70F22EC20E71489828A83A4
:1B145F008BF02230D10AE4F582F583F5F074802274FFF582F583F5F0747F22A0
:12147A00AA82AB83A2F73392D1F5826002D2F7ACF02277
:04148C007582002243
:00000001FF
