:04000000020029329F
:01000B0032C2
:0100130032BA
:01001B0032B2
:030023000200B721
:0300A10002002634
:030026000200A431
:2000A400758920759850758DFAD28E75A8901204AD80FB109902800030980AC291C298854B
:0600C400992375240132AE
:2000CA00D281D2801201D0C2811201D0C28022C281D2801201D0D2810201D0E58224FF924A
:2000EA0081D2801201D0C2800201D0D2801201D0A28192D7C2801201D0A2D7E433F582221C
:20010A00AF827E008F05ED2DFFA2D79281D280C007C0061201D0C2801201D0D006D0070E4B
:20012A00BE080040DF0200F57F00D2817E008F05ED2DFDD280C006C0051201D0D005D00673
:20014A00A281E4334DFFC280C007C0061201D0D006D0070EBE080040D58F8222AF82C0079C
:20016A001200CAD0078F8212010A85088212010A85098212010A0200D9AF82C0071200CA8C
:20018A00D0078F82C00712010A850A8212010A1200D91200CAD00774014FF58212010A1253
:1401AA000132AF82758201C0071200E51200D9D0078F822232
:1701BE00AC830CAD827E037FAADFFEDEFADDF6DCF2227F05DFFE221B
:1F008200753C01753D00E4F53EF53FF540F541F542F543F544F545F546F547F548F54971
:2001D500752905752A00752B01752C00752D1E752E00752F01753000120F44AF2F74302FC3
:2001F500F531E4F532FEFFE52E30E7077E017F0075332DE52E3392004006AC2DAD2E80095D
:20021500C3E4952DFCE4952EFD8C388D39750C64750D00853882853983C007C00612133B62
:20023500750C0A750D0012139EAA82AB83D006D007EA4B60118E048F050EBE00010FEC241A
:2002550033F974302AF774012EFCE43FFDEE2433F9750C0A750D00853882853983C005C089
:2002750004C00112133BAE82D001D004D00574302EF7EC2433F87600750B00758200120F88
:200295006F9015BA75F080120F19750B0A758200120F6F90003175F040120F19750B1475A2
:2002B5008200120F6F9015BD75F080120F19750B1E758200120F6F90003375F040120F19CF
:2002D500E4F53AF53BC3E53A9405E53B648094804003020372E4F525F526AC3AE53BC40393
:2002F50054F8CCC403CC6CCC54F8CC6CFD744F2CF527E43DF5287C007D00C3EC9408ED64A7
:20031500809480504D7B00BB0100503FAA25E42AF582AA278C07EF2AF50BC007C005C004B0
:20033500120F6FD004D005D007EF3395E0FEEF24B2F582EE3414F583E493F582C005C004A2
:20035500120FABD004D0057B0180BC0CBC00AB0D80A8053AE4B53A02053B0202DA752506E1
:20037500E4F526F527F528FEFFC3EE9408EF6480948050547D00BD02005046AC258D03EB3D
:200395002CF582AC278E02EA2CF50BC007C006C005C003C002120F6FD002D003EBC403541A
:2003B500F82AFA3395E0FCEA248AF582EC3414F583E493F582120FABD005D006D0070D80E4
:2003D500B50EBE00A40F80A17525077526007527087528007E007F00C3EE9408EF64809485
:2003F5008050457D00BD01005037AC25E42CF582AC278E03EB2CF50BC007C006C003120FCD
:200415006FD003EB3395E0FCEB24B2F582EC3414F583E493F582120FABD006D0077D0180AD
:20043500C40EBE00B30F80B07525037526007527507528007E007F00C3EE940CEF648094AF
:200455008050547D00BD02005046AC258D03EB2CF582AC278E02EA2CF50BC007C006C005D7
:20047500C003C002120F6FD002D003EB75F00CA42AFA3395E0FCEA249AF582EC3414F5831A
:20049500E493F582120FABD005D006D0070D80B50EBE00A40F80A1227403B53E06E4B53FBF
:2004B50002800D7404B53E06E4B53F0280028007C290120539802DE53C453D7007753C0129
:2004D500F53D80127401B53C0614B53D0280028005E4F53CF53DE53C453D24FF9290900108
:2004F500F41201BE7401B5242C85233E753F00752400C2901200CA120E597403B53E06E47A
:20051500B53F02800D7404B53E06E4B53F02800280031201D57401B522091200D98521998C
:200535007522002220A00B7401B5400614B54102801430A1030206607401B5420614B54358
:2005550002800302066020A0047F0180027F0030A00630A103020660BF0124740A252DF599
:200575002DE4352EF52EC3745A952D7480852EF063F08095F0501C752D5A752E008014E509
:200595002D24F6F52DE52E34FFF52E30E705E4F52DF52EE4FEFFE52E30E7077E017F0075AA
:2005B5004A2DE52E3392014006AC2DAD2E8009C3E4952DFCE4952EFD8C4F8D50750C647538
:2005D5000D00854F82855083C007C00612133B750C0A750D0012139EAA82AB83D006D00787
:2005F500EA4B60118E048F050EBE00010FEC244AF974302AF774012EFCE43FFDEE244AF912
:20061500750C0A750D00854F82855083C005C004C00112133BAE82D001D004D00574302EE4
:20063500F7EC244AF87600750B1E758200120F6F9015C075F080120F19750B1E7582001296
:200655000F6F90004A75F040120F1920B20B7401B5440614B54502801430B3030206FF74F8
:2006750001B5460614B5470280030206FF20B2047F0180027F0030B20320B36EBF011E1557
:200695002F74FFB52F021530C3E52F9401E530648094805027752F01753000801F052FE487
:2006B500B52F020530C37403952F74808530F063F08095F05006752F03753000AF2F7430F7
:2006D5002FF551755200750B0A758200120F6F9015C475F080120F19750B0A758200120F8E
:2006F5006F90005175F040120F1930A203020B9F7401B5480614B549028003020B9F9000EA
:200715000A1201BE30A203020B9F152974FFB52902152AE4F525F5267404C39529FEE4950F
:200735002AC40354F8CEC403CE6ECE54F8CE6EFF744F2EF527E43FF5287E007F00C3EE94B2
:2007550008EF6480948050317D00BD01005023AC25E42CF582AC278E03EB2CF50BC007C00C
:2007750006120F6F758200120FABD006D0077D0180D80EBE00C70F80C4852D82852E831226
:200795000D28AC82AD83AEF0FFC004C005C006C00790C3B775F0077441120FC28582538511
:2007B500835485F055F556E58124FCF581852F0C85300D9000191210C6AA82AB83C003C04C
:2007D50002C053C054C055C05690000075F0807440120FC285826B85836C85F06DF56EE594
:2007F5008124FCF581D002D0038A828B831211B2AA82AB83AEF0FFC06BC06CC06DC06E8A06
:20081500828B838EF0EF120FB785825785835885F059F55AE58124FCF581E4C0E0C0E0C033
:20083500E07441C0E08557828558838559F0E55A12115985825B85835C85F05DF55EE581D6
:2008550024FCF581C053C054C055C05690000075F0E07440120FB785825F85836085F06196
:20087500F562E58124FCF5818557828558838559F0E55A120E03AA82AB83AEF0FFC002C0A9
:2008950003C006C0078553828554838555F0E55612125C85826385836485F065F566E58107
:2008B50024FCF5817525077526007527087528007A007B00C3EA9408EB6480948050317FEF
:2008D50000BF01005023AE25E42EF582AE278A05ED2EF50BC003C002120F6F758200120FC8
:2008F500ABD002D0037F0180D80ABA00C70B80C4756710756800C37477956774808568F09D
:2009150063F08095F05003020B3F8567828568831211B2AA82AB83ACF0FDC05BC05CC05DD1
:20093500C05E8A828B838CF0ED120FB7AA82AB83ACF0FDE58124FCF5818A828B838CF0EDB7
:20095500120E03AA82AB83ACF0FDC002C003C004C0058563828564838565F0E566120FC280
:20097500AA82AB83ACF0FDE58124FCF581C05FC060C061C0628A828B838CF0ED121159AA48
:2009950082AB83ACF0FDE58124FCF5818A828B838CF0ED1211BF85826985836AC3E5699411
:2009B50001E56A648094805003020B31C3740795697480856AF063F08095F05003020B3151
:2009D500856925856A2674082567F527E43568F5287A007B00C3EA9408EB64809480504D5A
:2009F5007D00BD0100503FAC25E42CF582AC278A07EF2CF50BC007C003C002120F6FD00293
:200A1500D003D007EF3395E0FEEF24B2F582EE3414F583E493F582C003C002120FABD00287
:200A3500D0037D0180BC0ABA00AB0B80A89001901201BEC3E5259403E526648094805003C6
:200A5500020AE0C37404952574808526F063F08095F040777448952774808528F063F08026
:200A750095F05067C3E527945CE52864809480505A152B74FFB52B02152C752503752600A9
:200A95007527507528007E007F00C3EE940CEF6480948050367D00BD02005028AC258D03E8
:200AB500EB2CF582AC278E03EB2CF50BC007C006C005120F6F758200120FABD005D006D0F8
:200AD500070D80D30EBE00C20F80BF856925856A2674082567F527E43568F5287E007F00D7
:200AF500C3EE9408EF6480948050317D00BD01005023AC25E42CF582AC278E03EB2CF50BAB
:200B1500C007C006120F6F758200120FABD006D0077D0180D80EBE00C70F80C4740825676F
:200B3500F567E43568F56802090B7525077526007527087528007E007F00C3EE9408EF6436
:200B550080948050457D00BD01005037AC25E42CF582AC278E03EB2CF50BC007C006C00372
:200B7500120F6FD003EB3395E0FCEB24B2F582EC3414F583E493F582120FABD006D0077DA6
:200B95000180C40EBE00B30F80B0E52B452C6009E529452A6003020CF575250275260075C4
:200BB5002732752800E52B452C6003020C507E007F00C3EE9440EF648094804003020CE34B
:200BD5007C007D00C3EC9402ED648094805064AB258C02EA2BF582AB278E02EA2BF50BC008
:200BF50007C006C005C004120F6FD004D005D006D0078C02ED5403A2E0CA13CA13A2E0CA4A
:200C150013CA13CAFBEE2AFAEF3BFBEA24BAF582EB3414F583E493F582C007C006C005C0E9
:200C350004120FABD004D005D006D0070CBC00940D80910EBE00010F020BC7E529452A6072
:200C550003020CE37E007F00C3EE9440EF64809480507B7C007D00C3EC9402ED6480948034
:200C75005064AB258C02EA2BF582AB278E02EA2BF50BC007C006C005C004120F6FD004D000
:200C950005D006D0078C02ED5403A2E0CA13CA13A2E0CA13CA13CAFBEE2AFAEF3BFBEA2439
:200CB5003AF582EB3415F583E493F582C007C006C005C004120FABD004D005D006D0070C90
:200CD500BC00940D80910EBE00010F020C5D9003E81201BE753E01753F0075210175220167
:200CF500A2A2E433F548754900A2A0E433F540754100A2A1E433F542754300A2B2E433F59C
:200D150044754500A2B3E433F54675470090000A0201BEAE82AF83C3E49E74808FF063F095
:200D35008095F0E433FD6017750C0A750D008E828F83C00512139EAB82AC83D005801AC3C9
:200D5500E49EF582E49FF583750C0A750D00C00512139EAB82AC83D0058B068C07ED60272C
:200D7500EE2EFCEF33FDEC2CFCED33FDEC2431F582ED340EF583E493FAA3E493FBA3E493F7
:200D9500FCA3E493FD802FEE2EFEEF33FFEE2EFEEF33FFEE2431F582EF340EF583E493F834
:200DB500A3E493F9A3E493FEA3E493FF880289038E04EFB2E7FD8A828B838CF0ED22AE82D8
:200DD500AF83C3E49E74808FF063F08095F05010C3E49EFCE49FFD745A2CFCE43DFD800700
:200DF500745A2EFCE43FFD8C828D83020D28AC82AD83AEF0FFC004C005C006C0078C828DC5
:1C0E1500838EF0EF120FC2AC82AD83AEF0FFE58124FCF5818C828D838EF0EF224A
:20148A0000FFFFF600FEFFFE000107FFFEFF0700C03038FCFFFFFCFC3E3EF0C00103070FE8
:2014AA000F0F0F0F0F0703017EC381818181C37E00000000000000000000011FFFFFF0E058
:2014CA00FCFF1F3FFFF8E0FCFF7F070000FFFFFF000000FFFFFFFF3E7CF0E0FFFFFFFF00D2
:2014EA00000F7F7F1F000000000000000000000000000000000000000000000001070707A0
:20150A0007000000030707070700000000070707000000070707070000000307070707004B
:20152A000007070707000000000000000000000000000000000000000000FCFEFF0703037F
:20154A0007DFFEFEF8030F7FFEF080E0FCFF1F070000FFFFFF33333333330300FEFFFFFFAD
:20156A0073F3F7FFBF1E000000000000000000000000000000000000000001030707070708
:20158A000707030100000000030707070700000000000707070707070707070003070707B9
:1615AA00000001070707040000000000000000005320004120003D
:200E31000000000033C4313EA01AAF3E0000003F8A8E243F9318443F2DB25D3F2E90703FC4
:080E5100DA1B7C3F0000803F2A
:0615C000202020002000A5
:200E59007582A8120F9F75823F120F9F7582D3120F9F758200120F9F758240120F9F7582F5
:200E7900A1120F9F7582C8120F9F7582DA120F9F758212120F9F758281120F9F75827F125F
:200E99000F9F7582A4120F9F7582A6120F9F7582D5120F9F758280120F9F75828D120F9FCC
:200EB900758214120F9F7582AF120F9F020F44AF82BF0A01227E00EF24E0F50CEE34FFF5EE
:200ED9000D9000051210C6AE82AF837D008D037C00EB2EFBEC3FFCEB24C6F582EC3415F5D3
:200EF90083E493F582C007C006C005120FABD005D006D0070DBD050040D3758200020FAB33
:200F1900AD82AE83AFF08D828E838FF012131FFC60188C820DBD00010EC007C006C0051217
:200F39000EC8D005D006D00780DC227F00750B008F82C007120F6FD0077E00758200C00748
:200F5900C006120FABD006D0070EBE800040EC0FBF080040D822AF82AE0B74022EF50BAE75
:200F79000B740F5EF582C007C006120F9FD006EEC4540FFE74104EF582120F9FD00774B0BB
:1E0F99004FF582020F9F858209750800758278020166858209750840758278020166BA
:2015C600000000000000002F00000007000700147F147F14242A7F2A122313086462364902
:2015E6005522500005030000001C2241000041221C0014083E081408083E08080000A06044
:20160600000808080808006060000020100804023E5149453E00427F40004261514946219E
:2016260041454B311814127F1027454545393C4A49493001710905033649494936064949FC
:20164600291E00363600000056360000081422410014141414140041221408020151090680
:20166600324959513E7C1211127C7F494949363E414141227F4141221C7F494949417F09BF
:201686000909013E4149497A7F0808087F00417F41002040413F017F081422417F40404071
:2016A600407F020C027F7F0408107F3E4141413E7F090909063E4151215E7F091929464638
:2016C6004949493101017F01013F4040403F1F2040201F3F4038403F6314081463070870CE
:2016E60008076151494543007F41410055AA55AA550041417F0004020102044040404040B0
:20170600000305000020545454787F484444383844444420384444487F3854545418087E23
:2017260009010218A4A4A47C7F0804047800447D40004080847D007F1028440000417F4053
:20174600007C041804787C080404783844444438FC2424241818242418FC7C08040408485F
:2017660054545420043F4440203C4040207C1C2040201C3C4030403C44281028441CA0A0E4
:1B178600A07C4464544C4400107C82000000FF000000827C1000000609090667
:0B0FB700A8811818C6B2E7C602115945
:200FC200121065BC0003021214EF60FA30D502B2D1E583B4FF0302122AE582B4FF03021241
:200FE2002A258340072482400B021214248314500302122AF582EA8DF0A4A8F0EA8EF0A44B
:2010020028F8E435F0F9EB8DF0A428E935F0F9E433CA8FF0A429F9EA35F0FAEBF88EF0A43D
:2010220029F9EA35F0FAE433FBEC8DF0A429F9EA35F0FAE43BFBE88FF0A42AFAEB35F0FBE5
:20104200E433CCFD8EF0A42AFAEB35F0FBE43CFCED8FF0A42BFBEC35F0FC20E7031210933F
:031062000211F385
:20106500AA82AB83A2F73392D1F5826002D2F7ACF0E58124F9F8E6FD08E6FE0886F008E6EE
:0E108500A2F73392D5F5836002D2F7AFF022C6
:06005800E478FFF6D8FD7C
:201093007804EC7011E58224F8500AF582E4C9CACBFCD8EF22EC7820058220E713D582015C
:1310B30022C3E933F9EA33FAEB33FBEC33FCD8EA1582226A
:200036007900E94400601B7A009017A1780175A000E493F2A308B8000205A0D9F4DAF275B8
:02005600A0FF09
:1D10C600E582850CF0A4C582C0F0850DF0A4D0F025F0C583850CF0A42583F58322E0
:2010E300E50C450D60467A01E50C25E0F50CE50D334012F50DE582950CE583950D40030ABA
:2011030080E6C3E50D13F50DE50C13F50CC3E582950CF5F0E583950D4005F58385F082C366
:0D112300E50D13F50DE50C13F50CDAE122D6
:201130007A10E4FBFCE58225E0F582E58333F583EB33FBEC33FCEB950CF5F0EC950D4006CB
:09115000FCABF0438201DADD2260
:201159001210657900E583B58202800D5003121242E583C395821213D6E5D0C465D020E1A3
:2011790017EA2DFAEB3EFBEC3FFC500974011213D6EC4480FC0211F3C3EA9DFAEB9EFBECB4
:191199009FFC500FC3E499F9E49AFAE49BFBE49CFCB2D11210930211F35E
:20005E007800E84400600A790175A000E4F309D8FC7800E84400600C7900900001E4F0A3A0
:04007E00D8FCD9FAD7
:0D11B200AC83AB827A007900748E02137A50
:2011BF00121419700AE582458345F0700122E430D112F4700BE5F0F47006E58330E7012219
:1411DF0090800022700AE5F07006E58320E70122907FFF2243
:2011F300B98003EA13B34010EA2401FAE43BFBE43CFC50047C800582BC000EBB000BBA0040
:2012130008E4F5F0F583F58222A2D1E582138CF092F78B838A8222E4F583F58275F080F4FF
:0F123300A2D11322E4F583F58275F0C0747F22F7
:1A124200E582C583F582A2D133A2D592D11392D5ECCFFCEBCEFBEACDFA2234
:20125C0012106530D502B2D1BF0009BC000302123702122ABC0003021214E583B4FF0BE55F
:20127C0082B4FF03021237021214E582B4FF0302122AC395835007247F400B021214248060
:20129C0014500302122AF582C3ED9AEE9BEF9C40111582C3EA33F9EB33FAEC33FBE433FCB2
:2012BC008005E4CCCBCAF9C08275F019C3E99DEA9EEB9FEC9400D5F002802D400EE99DF973
:2012DC00EA9EFAEB9FFBEC9400FCC3B3E833F8E58233F582E58333F583C3E933F9EA33FAD3
:2012FC00EB33FBEC33FC80C4B3E4F938FAE43582FBE43583FCD082500405827C801210938C
:03131C0002120BAF
:0D00290075816E121486E5826003020026C8
:1C131F0020F71430F6148883A88220F507E6A88375830022E280F7E49322E022DD
:20133B00C2D5E58330E70DD2D5E4C39582F582E49583F583E50D30E70BE4C3950CF50CE4DE
:16135B00950DF50D1210E330D50BE4C39582F582E49583F58322F8
:20137100FCABF0AA83A982749EF582C2D1EC30E716D2D1E9F42401F9EAF43400FAEBF4347B
:0D13910000FBECF43400FC1210930211F389
:20139E00C2D5E58330E70DD2D5E4C39582F582E49583F583E50D30E70DB2D5E4C3950CF5E2
:1813BE000CE4950DF50D12113030D50BE4C39582F582E49583F5832255
:2013D6006040F82582500274FFF582E824F8501ECCCBCAF9E4CC24F85014CBCAF9E4CB241F
:2013F600F8500BCAF9E4CA24F8500379002224086010F8C3EC13FCEB13FBEA13FAE913F9D2
:03141600D8F122E8
:20141900121474C3749E9582403979001213D630D126E9F42401F582EAF43400F583EBF437
:201439003400F5F0ECF43400700AE582458345F0700122E430E70F22EC20E71489828A83AA
:1B1459008BF02230D10AE4F582F583F5F074802274FFF582F583F5F0747F22A6
:12147400AA82AB83A2F73392D1F5826002D2F7ACF0227D
:041486007582002249
:00000001FF
