:0400000002001132B7
:03000B0002007B75
:11006A00E4F508F509F50AF50B750C32F50D02000EE2
:03000E000201D11B
:20007B00C020C0E0C0F0C082C083C007C006C005C004C003C002C001C000C0D075D000754A
:20009B008CFC758A18050AE4B50A02050BE50824C1F582E5093402F583E493FE7F00C3E561
:2000BB000A9EE50B64808FF063F08095F0503E050AE4B50A02050BD2B7E50824B0F582E5DA
:2000DB00093402F583E493FD7C008D828C831201E2C2B7E50824B0F582E5093402F583E41A
:2000FB0093FD7C008D828C831201E280A0C3E50A9EE50B64808FF063F08095F0402DE50851
:20011B0024D2F582E5093402F583E493FF7E0074642FFFE43EFEC3E50A9FE50B64808EF0FE
:20013B0063F08095F05004C2B7806EE50824C1F582E5093402F583E493FF7E00E50824D2D5
:20015B00F582E5093402F583E493FD7C002FFFEC3EFEC3E50A9FE50B64808EF063F0809520
:20017B00F04036E4F50AF50B0508B5080205097409B50806E4B5090280028008750CC87595
:20019B000D008006750C32750D00C3E5089411E509648094804002C28CD0D0D000D001D0A0
:2001BB0002D003D004D005D006D007D083D082D0F0D0E0D02032758901758CFC758A18D2DD
:2001DB00A9D2AFD28C80FEAE82AF837590FFBE0105BF00028028BE0205BF00028026BE037E
:2001FB0005BF00028024BE0405BF00028022BE0505BF00028020BE0628BF0025801E1202A5
:20021B003DC2972212024BC29622120259C29522120267C29422120275C29322120283C200
:02023B0092220D
:2002B0000204030102020403010604050304020301F432C832323232F432F432963264646A
:1302D0003264323232323232323232C8323232321E1E1ED9
:20023D007E0A7F13DFFEDEFA7F0DDFFE22227E0A7F11DFFEDEFA7F09DFFE22227E0A7F0F99
:20025D00DFFEDEFA7F07DFFE22227E0A7F0DDFFEDEFA7F12DFFE22227E0A7F0CDFFEDEFAE2
:20027D007F0ADFFE22227E0A7F0BDFFEDEFA7F04DFFE22227E097F0BDFFEDEFA7F02DFFE28
:02029D0022221B
:0D029F00AD827E027FE4DFFEDEFADDF62296
:06004000E478FFF6D8FD94
:20001E007900E94400601B7A009002E3780175A000E493F2A308B8000205A0D9F4DAF275A3
:02003E00A0FF21
:200046007800E84400600A790175A000E4F309D8FC7800E84400600C7900900001E4F0A3B8
:04006600D8FCD9FAEF
:0D0011007581201202ACE582600302000E32
:0402AC007582002235
:00000001FF
