:0400000002001132B7
:03000B000200826E
:18006A00E4F508F509F50AF50BF50CF50DF50EF50FF510F51102000E7B
:03000E0002017676
:20008200C020C0E0C0F0C082C083C007C006C005C004C003C002C001C000C0D075D0007543
:2000A2008CFC758A180510E4B510020511E50E24E2F582E50F3405F583E493FE7F00C3E518
:2000C200109EE51164808FF063F08095F0503E0510E4B510020511D2B7E50E24C9F582E596
:2000E2000F3405F583E493FD7C008D828C8312027AC2B7E50E24C9F582E50F3405F583E449
:2001020093FD7C008D828C8312027A80A0E50E24FBF582E50F3405F583E4937C002EFEECCC
:200122003FFFC3E5109EE51164808FF063F08095F04024E4F510F511050EB50E02050FC376
:20014200E50E9419E50F64809480400BC28CE4F508F509F50EF50FD0D0D000D001D002D0AF
:2001620003D004D005D006D007D083D082D0F0D0E0D02032758901758CFC758A18D2A9D28D
:20018200AFC28CD281D28012042E75152875820312054490061475F0801204EE20A0397470
:2001A20001B50C0614B50D028002802CC3E50A940AE50B648094805057050AE4B50A0205D7
:2001C2000B740AB50A06E4B50B0280028042630801E4F50CF50D803830A030E50C450D7027
:2001E2002AC3E50A940AE50B648094805022050AE4B50A02050B740AB50A06E4B50B0280FC
:2002020002800D750C01750D008005E4F50AF50BE5084509602C208C29D28C75152875823E
:200222000312054490061F75F0801204EE75152875820312054490062B75F0801204EE020D
:20024200019EE5084509600302019E108C0302019E75152875820312054490061F75F080DD
:200262001204EE75152875820312054490061475F0801204EE02019EAE82AF83BE0105BF58
:2002820000028028BE0205BF00028023BE0305BF0002801EBE0405BF00028019BE0505BFBC
:1F02A20000028014BE0617BF0014800F0203B50203C30203D10203DF0203ED0203FB221A
:2005C90002040301020204030106040503040203010604050304020301F432C8323232320E
:2005E900F432F464F4F4C8C8C864F464F4F4C8C8C864323232F432323232F4323232C81E12
:200609001E1EF4323232C81E1E1EF46D75736963206F666621002020202020202020202018
:0C06290020006D75736963206F6E210066
:2002C100D281D280120429C281120429C28022C281D280120429D281020429E58224FF92E1
:2002E10081D280120429C280020429D280120429A28192D7C280120429A2D7E433F58222B3
:20030100AF827E008F05ED2DFFA2D79281D280C007C006120429C280120429D006D0070E9A
:20032100BE080040DF0202EC7F00D2817E008F05ED2DFDD280C006C005120429D005D00625
:20034100A281E4334DFFC280C007C006120429D006D0070EBE080040D58F8222AF82C00747
:200361001202C1D0078F821203018512821203018513821203010202D0AF82C0071202C1A9
:20038100D0078F82C0071203018514821203011202D01202C1D00774014FF5821203011273
:1403A1000329AF82758201C0071202DC1202D0D0078F82224E
:2003B5007E0A7F13DFFEDEFA7F0DDFFE22227E0A7F11DFFEDEFA7F09DFFE22227E0A7F0F20
:2003D500DFFEDEFA7F07DFFE22227E0A7F0DDFFEDEFA7F12DFFE22227E0A7F0CDFFEDEFA69
:2003F5007F0ADFFE22227E0A7F0BDFFEDEFA7F04DFFE22227E097F0BDFFEDEFA7F02DFFEAF
:020415002222A1
:17041700AC830CAD827E037FAADFFEDEFADDF6DCF2227F05DFFE22BF
:20042E007582A812057475823F1205747582D3120574758200120574758240120574758233
:20044E00A11205747582C81205747582DA12057475821212057475828112057475827F129D
:20046E0005747582A41205747582A61205747582D512057475828012057475828D1205743F
:20048E007582141205747582AF120574020519AF82BF0A01227E00EF24E0F516EE34FFF5B8
:2004AE001790000512058CAE82AF837D008D037C00EB2EFBEC3FFCEB2435F582EC3406F5E3
:2004CE0083E493F582C007C006C005120580D005D006D0070DBD050040D3758200020580D2
:2004EE00AD82AE83AFF08D828E838FF01205A9FC60188C820DBD00010EC007C006C00512D1
:20050E00049DD005D006D00780DC227F007515008F82C007120544D0077E00758200C007DD
:20052E00C006120580D006D0070EBE800040EC0FBF080040D822AF82AE1574022EF515AECB
:20054E0015740F5EF582C007C006120574D006EEC4540FFE74104EF582120574D00774B050
:1E056E004FF58202057485821375120075827802035D85821375124075827802035D0A
:20063500000000000000002F00000007000700147F147F14242A7F2A1223130864623649A2
:200655005522500005030000001C2241000041221C0014083E081408083E08080000A060E4
:20067500000808080808006060000020100804023E5149453E00427F40004261514946213F
:2006950041454B311814127F1027454545393C4A494930017109050336494949360649499D
:2006B500291E00363600000056360000081422410014141414140041221408020151090621
:2006D500324959513E7C1211127C7F494949363E414141227F4141221C7F494949417F0960
:2006F5000909013E4149497A7F0808087F00417F41002040413F017F081422417F40404012
:20071500407F020C027F7F0408107F3E4141413E7F090909063E4151215E7F0919294646D8
:200735004949493101017F01013F4040403F1F2040201F3F4038403F63140814630708706E
:2007550008076151494543007F41410055AA55AA550041417F000402010204404040404050
:20077500000305000020545454787F484444383844444420384444487F3854545418087EC4
:2007950009010218A4A4A47C7F0804047800447D40004080847D007F1028440000417F40F4
:2007B500007C041804787C080404783844444438FC2424241818242418FC7C080404084800
:2007D50054545420043F4440203C4040207C1C2040201C3C4030403C44281028441CA0A085
:1B07F500A07C4464544C4400107C82000000FF000000827C1000000609090608
:06004000E478FFF6D8FD94
:20001E007900E94400601B7A00900810780175A000E493F2A308B8000205A0D9F4DAF27570
:02003E00A0FF21
:1D058C00E5828516F0A4C582C0F08517F0A4D0F025F0C5838516F0A42583F5832207
:200046007800E84400600A790175A000E4F309D8FC7800E84400600C7900900001E4F0A3B8
:04006600D8FCD9FAEF
:0D0011007581201205C5E582600302000E16
:1C05A90020F71430F6148883A88220F507E6A88375830022E280F7E49322E02261
:0405C5007582002219
:00000001FF
