:03000000020006F5
:0300B40002000344
:030003000200B741
:0F00B700D281D280120F861201D11205AD80FBCB
:2000C600D281D2801201CCC2811201CCC28022C281D2801201CCD2810201CCE58224FF925E
:2000E60081D2801201CCC2800201CCD2801201CCA28192D7C2801201CCA2D7E433F5822230
:20010600AF827E008F05ED2DFFA2D79281D280C007C0061201CCC2801201CCD006D0070E57
:20012600BE080040DF0200F17F00D2817E008F05ED2DFDD280C006C0051201CCD005D0067F
:20014600A281E4334DFFC280C007C0061201CCD006D0070EBE080040D58F8222AF82C007A4
:200166001200C6D0078F821201068508821201068509821201060200D5AF82C0071200C6A8
:20018600D0078F82C007120106850A821201061200D51200C6D00774014FF582120106126B
:1401A600012EAF82758201C0071200E11200D5D0078F822242
:1701BA00AC830CAD827E037FAADFFEDEFADDF6DCF2227F05DFFE221F
:20005F00752501752600752701752800752987752A18752B80752C8F752D18752E80752F64
:20007F0094753018753180753201753300753401753500E4F536F537F538F539754701F5FE
:15009F0048F54DF54EF54FF550F551F552F553F554F555F55643
:2001D100121071E4F521F522F523F524FEFFC3EE9440EF64809480507B7C007D00C3EC94C9
:2001F10008ED648094805064AB218C02EA2BF582AB238E02EA2BF50BC007C006C005C004DE
:2002110012109CD004D005D006D0078C02ED5403A2E0CA13CA13A2E0CA13CA13CAFBEE2A92
:20023100FAEF3BFBEA24CFF582EB3415F583E493F582C007C006C005C0041210D8D004D0EC
:2002510005D006D0070CBC00940D80910EBE00010F0201DF750B3C75820112109C90186722
:2002710075F0801210467521037522007523557524007E007F00C3EE9410EF6480948050E1
:20029100457D00BD01005037AC21E42CF582AC238E03EB2CF50BC007C006C00312109CD09D
:2002B10003EB3395E0FCEB24CFF582EC3417F583E493F5821210D8D006D0077D0180C40E32
:2002D100BE00B30F80B07521077522007523557524007E007F00C3EE9410EF64809480501A
:2002F100457D00BD01005037AC21E42CF582AC238E03EB2CF50BC007C006C00312109CD03D
:2003110003EB3395E0FCEB24DFF582EC3417F583E493F5821210D8D006D0077D0180C40EC1
:20033100BE00B30F80B085250C85260D9000031211F3E5822429F987050987060987078DF2
:20035100828E838FF0121389AE827454C39EF50B75820512109C85250C85260D90000312A6
:2003710011F3E5822429F987050987060987078D828E838FF002104622121071AF3C7430C7
:200391002FF53EE4F53FFEFFE53B30E7077E017F0075402DE53B3392004006AC3AAD3B803E
:2003B10009C3E4953AFCE4953BFD8C458D46750C64750D00854582854683C007C0061214A8
:2003D10080750C0A750D001214E3AA82AB83D006D007EA4B60118E048F050EBE00010FECDB
:2003F1002440F974302AF774012EFCE43FFDEE2440F9750C0A750D00854582854683C00554
:20041100C004C001121480AE82D001D004D00574302EF7EC2440F87600750B0075820012E6
:20043100109C90187375F080121046750B0A75820012109C90003E75F040121046750B14E9
:2004510075820012109C90187675F080121046750B1E75820012109C90004075F040121081
:2004710046752106E4F522F523F524FEFFC3EE9408EF6480948050547D00BD02005046AC0A
:20049100218D03EB2CF582AC238E02EA2CF50BC007C006C005C003C00212109CD002D0035D
:2004B100EBC40354F82AFA3395E0FCEA2437F582EC3418F583E493F5821210D8D005D00666
:2004D100D0070D80B50EBE00A40F80A17521077522007523087524007E007F00C3EE94089B
:2004F100EF6480948050457D00BD01005037AC21E42CF582AC238E03EB2CF50BC007C00655
:20051100C00312109CD003EB3395E0FCEB245FF582EC3418F583E493F5821210D8D006D0C4
:20053100077D0180C40EBE00B30F80B07521037522007523507524007E007F00C3EE940C24
:20055100EF6480948050547D00BD02005046AC218D03EB2CF582AC238E02EA2CF50BC00706
:20057100C006C005C003C00212109CD002D003EB75F00CA42AFA3395E0FCEA2447F582EC77
:200591003418F583E493F5821210D8D005D006D0070D80B50EBE00A40F80A1227401B547A7
:2005B1000614B5480280227402B54706E4B54802801A7403B54706E4B5480280127404B55F
:2005D1004706E4B548028007220205E302079C02079D20A02A7401B54D0614B54E028002FA
:2005F100801D90000A1201BA20A014152574FFB525021526E52630E70675250275260020CF
:20061100A1347401B54F0614B550028002802790000A1201BA20A11E0525E4B525020526D6
:20063100C37402952574808526F063F08095F05005E4F525F52630B3030206DA7401B5551A
:200651000614B5560280030206DA90000A1201BA30B3030206DA74022525FEE43526FFBE14
:200671000205BF00028010BE0305BF00028013BE042BBF0028800B1203897547027548007F
:20069100801B754909754A00754B03754C00753A3C753B00753C03753D0012038A74022569
:2006B10025FEE43526FFBE030BBF0008754703754800801574022525FEE43526FFBE04095D
:2006D100BF0006754704754800E525B52708E526B5280302077585270C85280D9000031259
:2006F10011F3AE82EE2429F987050987060987078D828E838FF0121389AE827454C39EF52D
:200711000B75820512109C90187975F08012104685250C85260D9000031211F3AE82EE243C
:2007310029F987050987060987078D828E838FF0121389AE827454C39EF50B758205121009
:200751009C85250C85260D9000031211F3AE82EE2429F987050987060987078D828E838F09
:20077100F0121046852527852628A2B3E433F555755600A2A0E433F54D754E00A2A1E43333
:20079100F54F75500090000A0201BA2220A00B7401B54D0614B54E02801430A1030208C42F
:2007B1007401B54F0614B5500280030208C420A0047F0180027F0030A00630A1030208C480
:2007D100BF0124740A253AF53AE4353BF53BC3745A953A7480853BF063F08095F0501C7557
:2007F1003A5A753B008014E53A24F6F53AE53B34FFF53B30E705E4F53AF53BE4FEFFE53BC5
:2008110030E7077E017F0075572DE53B3392014006AC3AAD3B8009C3E4953AFCE4953BFD0C
:200831008C5C8D5D750C64750D00855C82855D83C007C006121480750C0A750D001214E35D
:20085100AA82AB83D006D007EA4B60118E048F050EBE00010FEC2457F974302AF774012E10
:20087100FCE43FFDEE2457F9750C0A750D00855C82855D83C005C004C001121480AE82D024
:2008910001D004D00574302EF7EC2457F87600750B1E75820012109C90188175F08012107C
:2008B10046750B1E75820012109C90005775F04012104620B20B7401B5510614B55202809F
:2008D1001430A2030209647401B5530614B55402800302096420B2047F0180027F0030B2E2
:2008F1000320A26FBF011E153C74FFB53C02153DC3E53C9401E53D648094805028753C010F
:20091100753D008020153C74FFB53C02153DC37403953C7480853DF063F08095F050067597
:200931003C03753D00AF3C74302FF55E755F00750B0A75820012109C90188575F08012105D
:2009510046750B0A75820012109C90005E75F04012104630B303020E047401B5550614B5BE
:2009710056028003020E0490000A1201BA30B303020E04154974FFB54902154AE4F521F5F7
:20099100227408C39549FEE4954AC40354F8CEC403CE6ECE54F8CE6EFF74322EF523E43FFE
:2009B100F5247E007F00C3EE9408EF6480948050317D00BD01005023AC21E42CF582AC238A
:2009D1008E03EB2CF50BC007C00612109C7582001210D8D006D0077D0180D80EBE00C70FFD
:2009F10080C4853A82853B83120E55AC82AD83AEF0FFC004C005C006C00790C3B775F00722
:200A110074411210EF85826085836185F062F563E58124FCF581853C0C853D0D90001912AD
:200A310011F3AA82AB83C003C002C060C061C062C06390000075F08074401210EF85827883
:200A510085837985F07AF57BE58124FCF581D002D0038A828B831212DFAA82AB83AEF0FFF0
:200A7100C078C079C07AC07B8A828B838EF0EF1210E485826485836585F066F567E5812459
:200A9100FCF581E4C0E0C0E0C0E07441C0E08564828565838566F0E567121286858268851D
:200AB100836985F06AF56BE58124FCF581C060C061C062C06390000075F0E074401210E4E9
:200AD10085826C85836D85F06EF56FE58124FCF5818564828565838566F0E567120F30AAE0
:200AF10082AB83AEF0FFC002C003C006C0078560828561838562F0E5631213A185827085D5
:200B1100837185F072F573E58124FCF5817521077522007523087524007A007B00C3EA94E2
:200B310008EB6480948050317F00BF01005023AE21E42EF582AE238A05ED2EF50BC003C030
:200B51000212109C7582001210D8D002D0037F0180D80ABA00C70B80C4757410757500C3D6
:200B71007477957474808575F063F08095F05003020DA48574828575831212DFAA82AB83DF
:200B9100ACF0FDC068C069C06AC06B8A828B838CF0ED1210E4AA82AB83ACF0FDE58124FC03
:200BB100F5818A828B838CF0ED120F30AA82AB83ACF0FDC002C003C004C00585708285716C
:200BD100838572F0E5731210EFAA82AB83ACF0FDE58124FCF581C06CC06DC06EC06F8A8280
:200BF1008B838CF0ED121286AA82AB83ACF0FDE58124FCF5818A828B838CF0ED1212EC85BC
:200C11008276858377C3E5769401E577648094805003020D96C37407957674808577F063C1
:200C3100F08095F05003020D9685762185772274082574F523E43575F5247A007B00C3EA06
:200C51009408EB64809480504D7D00BD0100503FAC21E42CF582AC238A07EF2CF50BC00707
:200C7100C003C00212109CD002D003D007EF3395E0FEEF245FF582EE3418F583E493F58286
:200C9100C003C0021210D8D002D0037D0180BC0ABA00AB0B80A89001901201BAC3E5219478
:200CB10003E522648094805003020D45C37404952174808522F063F08095F040777448959E
:200CD1002374808524F063F08095F05067C3E523945CE52464809480505A154B74FFB54B0B
:200CF10002154C7521037522007523507524007E007F00C3EE940CEF6480948050367D0097
:200D1100BD02005028AC218D03EB2CF582AC238E03EB2CF50BC007C006C00512109C758222
:200D3100001210D8D005D006D0070D80D30EBE00C20F80BF85762185772274082574F52383
:200D5100E43575F5247E007F00C3EE9408EF6480948050317D00BD01005023AC21E42CF5A9
:200D710082AC238E03EB2CF50BC007C00612109C7582001210D8D006D0077D0180D80EBEDE
:200D910000C70F80C474082574F574E43575F575020B707521077522007523087524007E4A
:200DB100007F00C3EE9408EF6480948050457D00BD01005037AC21E42CF582AC238E03EB79
:200DD1002CF50BC007C006C00312109CD003EB3395E0FCEB245FF582EC3418F583E493F565
:200DF100821210D8D006D0077D0180C40EBE00B30F80B0E54B454C700A754701F5481201F1
:200E1100D1800EE549454A7008754701F5481201D1A2B3E433F555755600A2A0E433F54D33
:200E3100754E00A2A1E433F54F755000A2B2E433F551755200A2A2E433F553755400900007
:200E51000A0201BAAE82AF83C3E49E74808FF063F08095F0E433FD6017750C0A750D008E22
:200E7100828F83C0051214E3AB82AC83D005801AC3E49EF582E49FF583750C0A750D00C0B0
:200E9100051214E3AB82AC83D0058B068C07ED6027EE2EFCEF33FDEC2CFCED33FDEC245E94
:200EB100F582ED340FF583E493FAA3E493FBA3E493FCA3E493FD802FEE2EFEEF33FFEE2E49
:200ED100FEEF33FFEE245EF582EF340FF583E493F8A3E493F9A3E493FEA3E493FF8802898B
:200EF100038E04EFB2E7FD8A828B838CF0ED22AE82AF83C3E49E74808FF063F08095F05060
:200F110010C3E49EFCE49FFD745A2CFCE43DFD8007745A2EFCE43FFD8C828D83020E55AC0D
:200F310082AD83AEF0FFC004C005C006C0078C828D838EF0EF1210EFAC82AD83AEF0FFE5BF
:0D0F51008124FCF5818C828D838EF0EF22CF
:2015CF00000000000000000000000000000000000000000000000000000000000080E0207C
:2015EF002060404080800000000000000000000000000000000000000000000000000000DC
:20160F00000000000000000000000000000000000000000000307848CC848484848487CE16
:20162F00CCD8F06040414346CCD8F0E0808000000000000000000000000000000000000029
:20164F0000000000000000000000000000000000000080E06030180C060603030101010052
:20166F000000000000000000000000000101030306060C1830E0C000000000000000000053
:20168F00000000000000C0E0E0C0F0F8F8F0E0781E070300000000000000000000000000AB
:2016AF0080F0F8F0F0F0E0E0E0C0C08080808080C0C0C0E0E0E0F1F7FEF8C00000000000C5
:2016CF000000000000000303033B3F1F1FFFFF00000000000000000000000000000000003C
:2016EF000000003D67818103039FFF5F233F3F7F7F9B838383633F0101C7FF000000000005
:20170F0000000000000000000000000000031F3CE0C080000000000000000000000000003C
:20172F000000000000081D37739130303020202020A0A163263CB0E0781F070000000000F6
:20174F0000000000000000000000000000000000000103060C1C1830306060C0C080808010
:20176F00808080808080808080808386CCCC66623331181C0E070300000000000000000041
:20178F00000000000000000000000000000000000000000000000000000000000000010138
:2017AF0001010101010101010101010000000000000000000000000000000000000000000F
:2017CF0000000000080C0E0F0F0E0C080000000000000000103070F0F07030100000000058
:2017EF000000000000FC1C1C1E0E0E0E0FFE00000060F0F0707F0000001838383C1F00003F
:20180F00C0C0E0E0F0F8FC000020C818E20618E0030307070F1F3F0000041318476018073F
:20182F00183C7EFFFF7E3C1800FFFFF600FEFFFE000107FFFEFF0700C03038FCFFFFFCFCE3
:20184F003E3EF0C00103070F0F0F0F0F0F0703017EC381818181C37E416E6772792042698B
:12186F00726421005320004120002020202020202000BC
:200F5E000000000033C4313EA01AAF3E0000003F8A8E243F9318443F2DB25D3F2E90703F96
:080F7E00DA1B7C3F0000803FFC
:1818810020202000200053657474696E670045617379004861726400E0
:200F86007582A81210CC75823F1210CC7582D31210CC7582001210CC7582401210CC7582E1
:200FA600A11210CC7582C81210CC7582DA1210CC7582121210CC7582811210CC75827F124B
:200FC60010CC7582A41210CC7582A61210CC7582D51210CC7582801210CC75828D1210CC8A
:200FE6007582141210CC7582AF1210CC021071AF82BF0A01227E00EF24E0F50CEE34FFF536
:201006000D9000051211F3AE82AF837D008D037C00EB2EFBEC3FFCEB2499F582EC3418F5A0
:2010260083E493F582C007C006C0051210D8D005D006D0070DBD050040D37582000210D8A8
:20104600AD82AE83AFF08D828E838FF0121464FC60188C820DBD00010EC007C006C00512A3
:201066000FF5D005D006D00780DC227F00750B008F82C00712109CD0077E00758200C007BE
:20108600C0061210D8D006D0070EBE800040EC0FBF080040D822AF82AE0B74022EF50BAE19
:2010A6000B740F5EF582C007C0061210CCD006EEC4540FFE74104EF5821210CCD00774B031
:1E10C6004FF5820210CC85820975080075827802016285820975084075827802016266
:20189900000000000000002F00000007000700147F147F14242A7F2A12231308646236492C
:2018B9005522500005030000001C2241000041221C0014083E081408083E08080000A0606E
:2018D900000808080808006060000020100804023E5149453E00427F4000426151494621C9
:2018F90041454B311814127F1027454545393C4A4949300171090503364949493606494927
:20191900291E003636000000563600000814224100141414141400412214080201510906AA
:20193900324959513E7C1211127C7F494949363E414141227F4141221C7F494949417F09E9
:201959000909013E4149497A7F0808087F00417F41002040413F017F081422417F4040409B
:20197900407F020C027F7F0408107F3E4141413E7F090909063E4151215E7F091929464662
:201999004949493101017F01013F4040403F1F2040201F3F4038403F6314081463070870F8
:2019B90008076151494543007F41410055AA55AA550041417F0004020102044040404040DA
:2019D900000305000020545454787F484444383844444420384444487F3854545418087E4E
:2019F90009010218A4A4A47C7F0804047800447D40004080847D007F1028440000417F407E
:201A1900007C041804787C080404783844444438FC2424241818242418FC7C080404084889
:201A390054545420043F4440203C4040207C1C2040201C3C4030403C44281028441CA0A00E
:1B1A5900A07C4464544C4400107C82000000FF000000827C1000000609090691
:0B10E400A8811818C6B2E7C6021286E9
:2010EF00121192BC0003021341EF60FA30D502B2D1E583B4FF03021357E582B4FF03021388
:20110F0057258340072482400B0213412483145003021357F582EA8DF0A4A8F0EA8EF0A493
:20112F0028F8E435F0F9EB8DF0A428E935F0F9E433CA8FF0A429F9EA35F0FAEBF88EF0A40F
:20114F0029F9EA35F0FAE433FBEC8DF0A429F9EA35F0FAE43BFBE88FF0A42AFAEB35F0FBB7
:20116F00E433CCFD8EF0A42AFAEB35F0FBE43CFCED8FF0A42BFBEC35F0FC20E7031211C0E3
:03118F0002132028
:20119200AA82AB83A2F73392D1F5826002D2F7ACF0E58124F9F8E6FD08E6FE0886F008E6C0
:0E11B200A2F73392D5F5836002D2F7AFF02298
:06003500E478FFF6D8FD9F
:2011C0007804EC7011E58224F8500AF582E4C9CACBFCD8EF22EC7820058220E713D582012E
:1311E00022C3E933F9EA33FAEB33FBEC33FCD8EA1582223C
:200013007900E94400601B7A00901A74780175A000E493F2A308B8000205A0D9F4DAF27505
:02003300A0FF2C
:1D11F300E582850CF0A4C582C0F0850DF0A4D0F025F0C583850CF0A42583F58322B2
:20121000E50C450D60467A01E50C25E0F50CE50D334012F50DE582950CE583950D40030A8B
:2012300080E6C3E50D13F50DE50C13F50CC3E582950CF5F0E583950D4005F58385F082C338
:0D125000E50D13F50DE50C13F50CDAE122A8
:20125D007A10E4FBFCE58225E0F582E58333F583EB33FBEC33FCEB950CF5F0EC950D40069D
:09127D00FCABF0438201DADD2232
:201286001211927900E583B58202800D500312136FE583C3958212151BE5D0C465D020E1D2
:2012A60017EA2DFAEB3EFBEC3FFC5009740112151BEC4480FC021320C3EA9DFAEB9EFBEC10
:1912C6009FFC500FC3E499F9E49AFAE49BFBE49CFCB2D11211C0021320D3
:20003B007800E84400600A790175A000E4F309D8FC7800E84400600C7900900001E4F0A3C3
:04005B00D8FCD9FAFA
:0D12DF00AC83AB827A007900748E0214BFDC
:2012EC0012155E700AE582458345F0700122E430D112F4700BE5F0F47006E58330E70122A5
:14130C0090800022700AE5F07006E58320E70122907FFF2214
:20132000B98003EA13B34010EA2401FAE43BFBE43CFC50047C800582BC000EBB000BBA0011
:2013400008E4F5F0F583F58222A2D1E582138CF092F78B838A8222E4F583F58275F080F4D1
:0F136000A2D11322E4F583F58275F0C0747F22C9
:1A136F00E582C583F582A2D133A2D592D11392D5ECCFFCEBCEFBEACDFA2206
:18138900AA82AB831214646003A380F8C3E5829AF582E5839BF5832212
:2013A10012119230D502B2D1BF0009BC0003021364021357BC0003021341E583B4FF0BE561
:2013C10082B4FF03021364021341E582B4FF03021357C395835007247F400B021341248062
:2013E100145003021357F582C3ED9AEE9BEF9C40111582C3EA33F9EB33FAEC33FBE433FC3E
:201401008005E4CCCBCAF9C08275F019C3E99DEA9EEB9FEC9400D5F002802D400EE99DF92C
:20142100EA9EFAEB9FFBEC9400FCC3B3E833F8E58233F582E58333F583C3E933F9EA33FA8C
:20144100EB33FBEC33FC80C4B3E4F938FAE43582FBE43583FCD082500405827C801211C017
:031461000213383B
:0D00060075817B1215CBE5826003020003BB
:1C14640020F71430F6148883A88220F507E6A88375830022E280F7E49322E02297
:20148000C2D5E58330E70DD2D5E4C39582F582E49583F583E50D30E70BE4C3950CF50CE498
:1614A000950DF50D12121030D50BE4C39582F582E49583F5832283
:2014B600FCABF0AA83A982749EF582C2D1EC30E716D2D1E9F42401F9EAF43400FAEBF43435
:0D14D60000FBECF43400FC1211C0021320E6
:2014E300C2D5E58330E70DD2D5E4C39582F582E49583F583E50D30E70DB2D5E4C3950CF59C
:181503000CE4950DF50D12125D30D50BE4C39582F582E49583F58322E0
:20151B006040F82582500274FFF582E824F8501ECCCBCAF9E4CC24F85014CBCAF9E4CB24D8
:20153B00F8500BCAF9E4CA24F8500379002224086010F8C3EC13FCEB13FBEA13FAE913F98B
:03155B00D8F122A2
:20155E001215B9C3749E95824039790012151B30D126E9F42401F582EAF43400F583EBF464
:20157E003400F5F0ECF43400700AE582458345F0700122E430E70F22EC20E71489828A8364
:1B159E008BF02230D10AE4F582F583F5F074802274FFF582F583F5F0747F2260
:1215B900AA82AB83A2F73392D1F5826002D2F7ACF02237
:0415CB007582002203
:00000001FF
