:04000000020029329F
:01000B0032C2
:0100130032BA
:01001B0032B2
:03002300020100D7
:0300D700020026FE
:030026000200DAFB
:1000DA00120111758920759850758DFAD28E75A8FE
:1000EA0090D2A0D2A1D2B2D2B3D2A2120AD912020B
:1000FA001C12057D80FB1099028000109802800670
:10010A0085990D750E0132D281D280120217C281F1
:10011A00120217C28022C281D280120217D2810231
:10012A000217E58224FF9281D280120217C280024E
:10013A000217D280120217A28192D7C28012021726
:10014A00A2D7E433F58222AF827E008F05ED2DFF20
:10015A00A2D79281D280C007C006120217C28012AB
:10016A000217D006D0070EBE080040DF02013C7F0E
:10017A0000D2817E008F05ED2DFDD280C006C0051C
:10018A00120217D005D006A281E4334DFFC280C007
:10019A0007C006120217D006D0070EBE080040D5C7
:1001AA008F8222AF82C007120111D0078F821201FB
:1001BA0051850882120151850982120151020120DA
:1001CA00AF82C007120111D0078F82C007120151F6
:1001DA00850A82120151120120120111D0077401FD
:1001EA004FF582120151120179AF82758201C0075F
:1001FA0012012C120120D0078F8222AC830CAD820F
:10020A007E037FAADFFEDEFADDF6DCF2227F05DF5F
:02021A00FE22C2
:100082007513017514007515017516007517E8755D
:10009200180E751980751A05751B0F751C80751D54
:1000A2000A751E0F751F80752001752100752201CA
:1000B200752300E4F524F525F526F527752A01F5C3
:1000C2002BF530F531F532F533F534F535F536F5F6
:0500D20037F538F53997
:10021C00120BC4E4F50FF510F511F512FEFFC3EE49
:10022C009440EF64809480507B7C007D00C3EC9400
:10023C0008ED648094805064AB0F8C02EA2BF5823D
:10024C00AB118E02EA2BF544C007C006C005C004F2
:10025C00120BEFD004D005D006D0078C02ED54035E
:10026C00A2E0CA13CA13A2E0CA13CA13CAFBEE2A2D
:10027C00FAEF3BFBEA2474F582EB340CF583E49340
:10028C00F582C007C006C005C004120C2BD004D0E8
:10029C0005D006D0070CBC00940D80910EBE000159
:1002AC000F02022A75443C758201120BEF900EDC92
:1002BC0075F080120B99750F03751000751155753B
:1002CC0012007E007F00C3EE9410EF648094805087
:1002DC00457D00BD01005037AC0FE42CF582AC110C
:1002EC008E03EB2CF544C007C006C003120BEFD0F5
:1002FC0003EB3395E0FCEB2474F582EC340EF583C0
:10030C00E493F582120C2BD006D0077D0180C40E2D
:10031C00BE00B30F80B0750F0775100075115575C1
:10032C0012007E007F00C3EE9410EF648094805026
:10033C00457D00BD01005037AC0FE42CF582AC11AB
:10034C008E03EB2CF544C007C006C003120BEFD094
:10035C0003EB3395E0FCEB2484F582EC340EF5834F
:10036C00E493F582120C2BD006D0077D0180C40ECD
:10037C00BE00B30F80B0E5134514700B75444D757A
:10038C008205120BEF8009754450758205120BEF34
:10039C00851345851446900003120C37E58224170B
:1003AC00F987050987060987078D828E838FF002EE
:1003BC000B99120BC4754432758201120BEF900E1F
:1003CC00E875F080120B99750F0375100075110507
:1003DC007512007E007F00C3EE9410EF6480948051
:1003EC0050537D00BD02005045AC0F8D03EB2CF536
:1003FC0082AC118E02EA2CF544C007C006C005C0C1
:10040C0003C002120BEFD002D003EBC454F02AFA53
:10041C003395E0FCEA2494F582EC340EF583E493F6
:10042C00F582120C2BD005D006D0070D80B60EBE6F
:10043C0000A50F80A2750F0475100075112D751293
:10044C00007F00BF0400503D7E00BE01005033AD64
:10045C000FE42DF582AD118F04EC2DF544C007C0CF
:10046C0004120BEFD004EC3395E0FDEC24D4F582B0
:10047C00ED340EF583E493F582120C2BD0077E013C
:10048C0080C80F80BE754440758204120BEF900E2D
:10049C00F075F080120B99750F0475100075115DD5
:1004AC007512007F00BF0400503D7E00BE0100505D
:1004BC0033AD0FE42DF582AD118F04EC2DF544C056
:1004CC0007C004120BEFD004EC3395E0FDEC24D8FC
:1004DC00F582ED340EF583E493F582120C2BD007E4
:1004EC007E0180C80F80BE750F0675100075110552
:1004FC007512007E007F00C3EE9410EF6480948030
:10050C0050537D00BD02005045AC0F8D03EB2CF514
:10051C0082AC118E02EA2CF544C007C006C005C09F
:10052C0003C002120BEFD002D003EBC454F02AFA32
:10053C003395E0FCEA24B4F582EC340EF583E493B5
:10054C00F582120C2BD005D006D0070D80B60EBE4E
:10055C0000A50F80A2754444758207120BEFAF26DD
:10056C0074302FF52875290090002875F040020B87
:10057C00997401B52A0614B52B0280227402B52A8F
:10058C0006E4B52B02801A7403B52A06E4B52B02D7
:10059C0080127404B52A06E4B52B028007220205EA
:1005AC00B302075502072B20A02A7401B53006149C
:1005BC00B531028002801D90000A12020520A014A1
:1005CC00151374FFB513021514E51430E7067513F3
:1005DC000275140020A1347401B5320614B533022F
:1005EC008002802790000A12020520A11E0513E448
:1005FC00B513020514C37402951374808514F0634B
:10060C00F08095F05005E4F513F51430A2030206C2
:10061C00987401B5380614B5390280030206989017
:10062C00000A12020520A26474022513FEE435149C
:10063C00FFBE0205BF00028010BE0305BF00028092
:10064C0013BE041CBF0019800B1203BE752A027561
:10065C002B00800CAF1374022FF50B750C01C29795
:10066C0074022513FEE43514FFBE030BBF0008759E
:10067C002A03752B00801574022513FEE43514FF34
:10068C00BE0409BF0006752A04752B00E513B515C9
:10069C0007E514B516028060E5134514700B75441C
:1006AC0050758205120BEF800975444D7582051249
:1006BC000BEF900EF475F080120B99E51345147046
:1006CC000B75444D758205120BEF800975445075FE
:1006DC008205120BEF851345851446900003120C0E
:1006EC0037AE82EE2417F987050987060987078D2F
:1006FC00828E838FF0120B99851315851416A2A286
:10070C00E433F538753900A2A0E433F530753100C7
:10071C00A2A1E433F53275330090000A020205748D
:10072C0001B50C0B120120850B99750C00C2967447
:10073C0001B50E14752A01752B00750E00C29412AA
:10074C000111120AD902021C2220A00B7401B5302F
:10075C000614B53102801020A15C7401B532061468
:10076C00B533028002804F20A0047F0180027F00FD
:10077C0030A00320A140BF011E152074FFB520023C
:10078C001521C3E5209401E52164809480502775E0
:10079C002002752100801F0520E4B520020521C32D
:1007AC007402952074808521F063F08095F05006DA
:1007BC0075200175210020A21F7401B5380614B5EF
:1007CC0039028002801290000A12020520A209123E
:1007DC00021C752A01752B0020B20B7401B534066E
:1007EC0014B53502801430B3030208EE7401B5362B
:1007FC000614B5370280030208EE20B2047F008095
:10080C00027F0130B20630B3030208EE7401B5204A
:10081C000614B5210280028066E52424FFFDE5253F
:10082C0034FF4D7004FDFE80047D017E008D248E0E
:10083C0025754440758204120BEF900EFC75F08008
:10084C00120B99E5244525701575444075820412E8
:10085C000BEF900EF075F080120B990208EE7401FC
:10086C00B5240614B5250280028077754441758243
:10087C0004120BEF900F0075F080120B99806374CB
:10088C0002B52006E4B5210280028056EF701515E2
:10089C002674FFB526021527E52730E729E4F5264F
:1008AC00F5278022BF011F0526E4B526020527C3C4
:1008BC007403952674808527F063F08095F05006BC
:1008CC00752603752700754444758207120BEFAF2C
:1008DC002674302FF53A753B0090003A75F04012B3
:1008EC000B99E522B52008E523B52103020AA07473
:1008FC0001B5220614B52302800F7402B52207E459
:10090C00B523030209DC020AA075442D758204127A
:10091C000BEF900F0375F080120B9975445D758287
:10092C0004120BEF900F0375F080120B99750F07E3
:10093C0075100075112D7512007F00BF0400503D1D
:10094C007E00BE01005033AD0FE42DF582AD118F4A
:10095C0004EC2DF544C007C004120BEFD004EC33AB
:10096C0095E0FDEC24D4F582ED340EF583E493F59B
:10097C0082120C2BD0077E0180C80F80BE750F072A
:10098C0075100075115D7512007F00BF04004003E7
:10099C00020AA07E00BE01005033AD0FE42DF5829B
:1009AC00AD118F04EC2DF544C007C004120BEFD031
:1009BC0004EC3395E0FDEC24D8F582ED340EF58390
:1009CC00E493F582120C2BD0077E0180C80F80BBFC
:1009DC0075442D758207120BEF900F0375F0801282
:1009EC000B9975445D758207120BEF900F0375F030
:1009FC0080120B99750F0475100075112D7512006E
:100A0C007F00BF0400503D7E00BE01005033AD0F8F
:100A1C00E42DF582AD118F04EC2DF544C007C00414
:100A2C00120BEFD004EC3395E0FDEC24D4F582ED01
:100A3C00340EF583E493F582120C2BD0077E0180E3
:100A4C00C80F80BE750F0475100075115D7512000E
:100A5C007F00BF0400503D7E00BE01005033AD0F3F
:100A6C00E42DF582AD118F04EC2DF544C007C004C4
:100A7C00120BEFD004EC3395E0FDEC24D8F582EDAD
:100A8C00340EF583E493F582120C2BD0077E018093
:100A9C00C80F80BE852022852123A2A2E433F5381D
:100AAC00753900A2A0E433F530753100A2A1E4330E
:100ABC00F532753300A2B2E433F534753500A2B3C8
:0D0ACC00E433F53675370090000A0202058C
:100C74000000000000000000000000000000000070
:100C84000000000000000000000000000080E020E0
:100C94002060404080800000000000000000000050
:100CA4000000000000000000000000000000000040
:100CB4000000000000000000000000000000000030
:100CC4000000000000307848CC848484848487CE7B
:100CD400CCD8F06040414346CCD8F0E0808000009E
:100CE4000000000000000000000000000000000000
:100CF40000000000000000000000000000000000F0
:100D0400000080E06030180C0606030301010100B6
:100D140000000000000000000000000001010303C7
:100D240006060C1830E0C0000000000000000000BF
:100D3400000000000000C0E0E0C0F0F8F8F0E07847
:100D44001E07030000000000000000000000000077
:100D540080F0F8F0F0F0E0E0E0C0C08080808080B7
:100D6400C0C0C0E0E0E0F1F7FEF8C0000000000001
:100D74000000000000000303033B3F1F1FFFFF00B0
:100D8400000000000000000000000000000000005F
:100D94000000003D67818103039FFF5F233F3F7F86
:100DA4007F9B838383633F0101C7FF000000000032
:100DB40000000000000000000000000000031F3CD1
:100DC400E0C08000000000000000000000000000FF
:100DD4000000000000081D377391303030202020BF
:100DE40020A0A163263CB0E0781F070000000000AB
:100DF40000000000000000000000000000000000EF
:100E0400000103060C1C1830306060C0C080808074
:100E1400808080808080808080808386CCCC666265
:100E24003331181C0E07030000000000000000000E
:100E340000000000000000000000000000000000AE
:100E4400000000000000000000000000000001019C
:100E54000101010101010101010101000000000083
:100E6400000000000000000000000000000000007E
:100E740000000000080C0E0F0F0E0C08000000000C
:100E840000000000103070F0F0703010000000001E
:100E94000000000000FC1C1C1E0E0E0E0FFE0000C5
:100EA4000060F0F0707F0000001838383C1F00002C
:100EB400C0C0E0E0F0F8FC000020C818E20618E02A
:100EC400030307070F1F3F000004131847601807A8
:100ED400183C7EFFFF7E3C18416E677279204269A0
:100EE4007264210053657474696E67004F4646004E
:100EF4002020202020202000202020004F4E0020F1
:0B0F04000045617379004861726400D1
:100AD9007582A8120C1F75823F120C1F7582D312E2
:100AE9000C1F758200120C1F758240120C1F758233
:100AF900A1120C1F7582C8120C1F7582DA120C1F05
:100B0900758212120C1F758281120C1F75827F1259
:100B19000C1F7582A4120C1F7582A6120C1F7582F8
:100B2900D5120C1F758280120C1F75828D120C1F35
:100B3900758214120C1F7582AF120C1F020BC4AF01
:100B490082BF0A01227E00EF24E0F545EE34FFF56D
:100B590046900005120C37AE82AF837D008D037C71
:100B690000EB2EFBEC3FFCEB240FF582EC340FF588
:100B790083E493F582C007C006C005120C2BD0058B
:100B8900D006D0070DBD050040D3758200020C2B9D
:100B9900AD82AE83AFF08D828E838FF0120C54FC40
:100BA90060188C820DBD00010EC007C006C0051279
:100BB9000B48D005D006D00780DC227F00754400A1
:100BC9008F82C007120BEFD0077E00758200C00725
:100BD900C006120C2BD006D0070EBE800040EC0FC9
:100BE900BF080040D822AF82AE4474022EF544AE4D
:100BF90044740F5EF582C007C006120C1FD006EEC2
:100C0900C4540FFE74104EF582120C1FD00774B035
:100C19004FF582020C1F85820975080075827802DA
:0E0C290001AD8582097508407582780201AD23
:100F0F00000000000000002F000000070007001481
:100F1F007F147F14242A7F2A122313086462364910
:100F2F005522500005030000001C22410000412201
:100F3F001C0014083E081408083E08080000A060B2
:100F4F00000808080808006060000020100804026C
:100F5F003E5149453E00427F400042615149462182
:100F6F0041454B311814127F1027454545393C4AEE
:100F7F00494930017109050336494949360649493E
:100F8F00291E003636000000563600000814224194
:100F9F0000141414141400412214080201510906FC
:100FAF00324959513E7C1211127C7F494949363ED4
:100FBF00414141227F4141221C7F494949417F09DB
:100FCF000909013E4149497A7F0808087F00417F9E
:100FDF0041002040413F017F081422417F404040A3
:100FEF00407F020C027F7F0408107F3E4141413E4B
:100FFF007F090909063E4151215E7F09192946469D
:10100F004949493101017F01013F4040403F1F20C5
:10101F0040201F3F4038403F631408146307087097
:10102F0008076151494543007F41410055AA55AA20
:10103F00550041417F0004020102044040404040FE
:10104F00000305000020545454787F484444383836
:10105F0044444420384444487F3854545418087E3C
:10106F0009010218A4A4A47C7F0804047800447D1D
:10107F0040004080847D007F1028440000417F4065
:10108F00007C041804787C080404783844444438FD
:10109F00FC2424241818242418FC7C080404084871
:1010AF0054545420043F4440203C4040207C1C209A
:1010BF0040201C3C4030403C44281028441CA0A039
:1010CF00A07C4464544C4400107C82000000FF005C
:0B10DF000000827C10000006090906DA
:06005800E478FFF6D8FD7C
:100036007900E94400601B7A009010EA780175A007
:1000460000E493F2A308B8000205A0D9F4DAF27529
:02005600A0FF09
:100C3700E5828545F0A4C582C0F08546F0A4D0F0D2
:0D0C470025F0C5838545F0A42583F58322A3
:10005E007800E84400600A790175A000E4F309D83D
:10006E00FC7800E84400600C7900900001E4F0A3F5
:04007E00D8FCD9FAD7
:0D002900758146120C70E58260030200260E
:100C540020F71430F6148883A88220F507E6A883C9
:100C640075830022E280F7E49322E0227582002259
:00000001FF
