:0400000002001132B7
:03000B000200826E
:10006A00E4F508F509F50AF50BF50CF50DF50EF5AD
:08007A000FF510F51102000E54
:03000E0002017478
:10008200C020C0E0C0F0C082C083C007C006C00567
:10009200C004C003C002C001C000C0D075D000754A
:1000A2008CFC758A180510E4B510020511E50E24C2
:1000B20015F582E50F3406F583E493FE7F00C3E570
:1000C200109EE51164808FF063F08095F0503E053C
:1000D20010E4B510020511D2B7E50E24FCF582E555
:1000E2000F3405F583E493FD7C008D828C8312022C
:1000F200ADC2B7E50E24FCF582E50F3405F583E4C5
:1001020093FD7C008D828C831202AD80A0E50E24CB
:100112002EF582E50F3406F583E4937C002EFEEC87
:100122003FFFC3E5109EE51164808FF063F0809578
:10013200F04022E4F510F511050EB50E02050FC3CD
:10014200E50E9419E50F648094804009E4F508F502
:1001520009F50EF50FD0D0D000D001D002D003D0D7
:1001620004D005D006D007D083D082D0F0D0E0D022
:100172002032758901758CFC758A18D2A9D2AFC25A
:100182008CD281D280120461751728758203120500
:100192007790064775F08012052120A2397401B5C7
:1001A2000C0614B50D028002802CC3E50A9409E501
:1001B2000B648094805057050AE4B50A02050B745B
:1001C20009B50A06E4B50B0280028042630801E425
:1001D200F50CF50D803830A230E50C450D702AC3C0
:1001E200E50A9409E50B648094805022050AE4B57F
:1001F2000A02050B7409B50A06E4B50B02800280F7
:100202000D750C01750D008005E4F50AF50B7517E7
:1002120028758205120577AF0A74302FF51275130F
:100222000090001275F0401205217517287582069C
:10023200120577AF0C74302FF51290001275F04052
:10024200120521E5084509602C208C29D28C7517EE
:100252002875820312057790065275F080120521E7
:1002620075172875820312057790065E75F0801265
:10027200052102019CE5084509600302019C108CDE
:100282000302019C751728758203120577900652A6
:1002920075F0801205217517287582031205779073
:1002A200064775F08012052102019CAE82AF83BE23
:1002B2000105BF00028028BE0205BF00028023BEE6
:1002C2000305BF0002801EBE0405BF00028019BEE6
:1002D2000505BF00028014BE0617BF0014800F027E
:1002E20003E80203F60204040204120204200204D8
:0202F2002E22BA
:1005FC0002040301020204030106040503040203BE
:10060C00010604050304020301F432C8323232320B
:10061C00F432F464F4F4C8C8C864F464F4F4C8C8DC
:10062C00C864323232F432323232F4323232C81ED0
:10063C001E1EF4323232C81E1E1EF46D75736963B1
:10064C00206F6666210020202020202020202020E2
:0C065C0020006D75736963206F6E210033
:1002F400D281D28012045CC28112045CC28022C208
:1003040081D28012045CD28102045CE58224FF92D3
:1003140081D28012045CC28002045CD28012045C2C
:10032400A28192D7C28012045CA2D7E433F5822260
:10033400AF827E008F05ED2DFFA2D79281D280C0BF
:1003440007C00612045CC28012045CD006D0070EFB
:10035400BE080040DF02031F7F00D2817E008F05AC
:10036400ED2DFDD280C006C00512045CD005D00678
:10037400A281E4334DFFC280C007C00612045CD0E2
:1003840006D0070EBE080040D58F8222AF82C00778
:100394001202F4D0078F82120334851482120334BC
:1003A400851582120334020303AF82C0071202F4DC
:1003B400D0078F82C00712033485168212033412C9
:1003C40003031202F4D00774014FF58212033412AE
:1003D400035CAF82758201C00712030F120303D0BE
:1003E400078F82227E0A7F13DFFEDEFA7F0DDFFE97
:1003F40022227E0A7F11DFFEDEFA7F09DFFE22223F
:100404007E0A7F0FDFFEDEFA7F07DFFE22227E0AEE
:100414007F0DDFFEDEFA7F12DFFE22227E0A7F0CD2
:10042400DFFEDEFA7F0ADFFE22227E0A7F0BDFFE7A
:10043400DEFA7F04DFFE22227E097F0BDFFEDEFA76
:100444007F02DFFE2222AC830CAD827E037FAADF13
:10045400FEDEFADDF6DCF2227F05DFFE227582A8DD
:100464001205A775823F1205A77582D31205A775D9
:1004740082001205A77582401205A77582A1120594
:10048400A77582C81205A77582DA1205A7758212AC
:100494001205A77582811205A775827F1205A775BB
:1004A40082A41205A77582A61205A77582D5120526
:1004B400A77582801205A775828D1205A77582140F
:1004C4001205A77582AF1205A702054CAF82BF0AB9
:1004D40001227E00EF24E0F518EE34FFF5199000B8
:1004E400051205BFAE82AF837D008D037C00EB2E29
:1004F400FBEC3FFCEB2468F582EC3406F583E493D3
:10050400F582C007C006C0051205B3D005D006D0D9
:10051400070DBD050040D37582000205B3AD82AE60
:1005240083AFF08D828E838FF01205DCFC60188C13
:10053400820DBD00010EC007C006C0051204D0D054
:1005440005D006D00780DC227F007517008F82C09B
:1005540007120577D0077E00758200C007C0061217
:1005640005B3D006D0070EBE800040EC0FBF0800D4
:1005740040D822AF82AE1774022EF517AE17740F4F
:100584005EF582C007C0061205A7D006EEC4540F5C
:10059400FE74104EF5821205A7D00774B04FF58291
:1005A4000205A7858215751400758278020390856B
:0B05B4008215751440758278020390D8
:10066800000000000000002F000000070007001431
:100678007F147F14242A7F2A1223130864623649C0
:100688005522500005030000001C224100004122B1
:100698001C0014083E081408083E08080000A06062
:1006A800000808080808006060000020100804021C
:1006B8003E5149453E00427F400042615149462132
:1006C80041454B311814127F1027454545393C4A9E
:1006D80049493001710905033649494936064949EE
:1006E800291E003636000000563600000814224144
:1006F80000141414141400412214080201510906AC
:10070800324959513E7C1211127C7F494949363E83
:10071800414141227F4141221C7F494949417F098A
:100728000909013E4149497A7F0808087F00417F4D
:1007380041002040413F017F081422417F40404052
:10074800407F020C027F7F0408107F3E4141413EFA
:100758007F090909063E4151215E7F09192946464C
:100768004949493101017F01013F4040403F1F2075
:1007780040201F3F4038403F631408146307087047
:1007880008076151494543007F41410055AA55AAD0
:10079800550041417F0004020102044040404040AE
:1007A800000305000020545454787F4844443838E6
:1007B80044444420384444487F3854545418087EEC
:1007C80009010218A4A4A47C7F0804047800447DCD
:1007D80040004080847D007F1028440000417F4015
:1007E800007C041804787C080404783844444438AD
:1007F800FC2424241818242418FC7C080404084821
:1008080054545420043F4440203C4040207C1C2049
:1008180040201C3C4030403C44281028441CA0A0E8
:10082800A07C4464544C4400107C82000000FF000B
:0B0838000000827C1000000609090689
:06004000E478FFF6D8FD94
:10001E007900E94400601B7A00900843780175A0CE
:10002E0000E493F2A308B8000205A0D9F4DAF27541
:02003E00A0FF21
:1005BF00E5828518F0A4C582C0F08519F0A4D0F0AB
:0D05CF0025F0C5838518F0A42583F583224F
:100046007800E84400600A790175A000E4F309D855
:10005600FC7800E84400600C7900900001E4F0A30D
:04006600D8FCD9FAEF
:0D0011007581201205F8E582600302000EE3
:1005DC0020F71430F6148883A88220F507E6A88348
:1005EC0075830022E280F7E49322E02275820022D8
:00000001FF
